{
  "contractName": "BatteryInvestment",
  "abi": [
    {
      "constant": true,
      "inputs": [],
      "name": "totalInvestment",
      "outputs": [
        {
          "name": "",
          "type": "uint256"
        }
      ],
      "payable": false,
      "stateMutability": "view",
      "type": "function"
    },
    {
      "constant": true,
      "inputs": [
        {
          "name": "",
          "type": "uint256"
        }
      ],
      "name": "investorsList",
      "outputs": [
        {
          "name": "",
          "type": "address"
        }
      ],
      "payable": false,
      "stateMutability": "view",
      "type": "function"
    },
    {
      "constant": true,
      "inputs": [
        {
          "name": "",
          "type": "address"
        }
      ],
      "name": "numInvestorInvestments",
      "outputs": [
        {
          "name": "",
          "type": "uint256"
        }
      ],
      "payable": false,
      "stateMutability": "view",
      "type": "function"
    },
    {
      "constant": true,
      "inputs": [],
      "name": "dividendPercentage",
      "outputs": [
        {
          "name": "",
          "type": "uint256"
        }
      ],
      "payable": false,
      "stateMutability": "view",
      "type": "function"
    },
    {
      "constant": true,
      "inputs": [
        {
          "name": "",
          "type": "address"
        },
        {
          "name": "",
          "type": "uint256"
        }
      ],
      "name": "investors",
      "outputs": [
        {
          "name": "investorAddress",
          "type": "address"
        },
        {
          "name": "timestamp",
          "type": "uint256"
        },
        {
          "name": "investmentAmount",
          "type": "uint256"
        }
      ],
      "payable": false,
      "stateMutability": "view",
      "type": "function"
    },
    {
      "constant": true,
      "inputs": [],
      "name": "PtoPAddress",
      "outputs": [
        {
          "name": "",
          "type": "address"
        }
      ],
      "payable": false,
      "stateMutability": "view",
      "type": "function"
    },
    {
      "constant": true,
      "inputs": [],
      "name": "investmentPercentage",
      "outputs": [
        {
          "name": "",
          "type": "uint256"
        }
      ],
      "payable": false,
      "stateMutability": "view",
      "type": "function"
    },
    {
      "constant": true,
      "inputs": [],
      "name": "remainingInvestment",
      "outputs": [
        {
          "name": "",
          "type": "uint256"
        }
      ],
      "payable": false,
      "stateMutability": "view",
      "type": "function"
    },
    {
      "constant": true,
      "inputs": [
        {
          "name": "",
          "type": "uint256"
        }
      ],
      "name": "pendingTotalWithdrawals",
      "outputs": [
        {
          "name": "",
          "type": "uint256"
        }
      ],
      "payable": false,
      "stateMutability": "view",
      "type": "function"
    },
    {
      "constant": true,
      "inputs": [],
      "name": "numInvestorsWithdraw",
      "outputs": [
        {
          "name": "",
          "type": "uint256"
        }
      ],
      "payable": false,
      "stateMutability": "view",
      "type": "function"
    },
    {
      "constant": true,
      "inputs": [
        {
          "name": "",
          "type": "address"
        }
      ],
      "name": "pendingWithdrawals",
      "outputs": [
        {
          "name": "",
          "type": "uint256"
        }
      ],
      "payable": false,
      "stateMutability": "view",
      "type": "function"
    },
    {
      "inputs": [
        {
          "name": "_PtoPAddress",
          "type": "address"
        },
        {
          "name": "_dividendPercentage",
          "type": "uint256"
        }
      ],
      "payable": false,
      "stateMutability": "nonpayable",
      "type": "constructor"
    },
    {
      "anonymous": false,
      "inputs": [
        {
          "indexed": false,
          "name": "investorAddress",
          "type": "address"
        },
        {
          "indexed": false,
          "name": "investmentAmount",
          "type": "uint256"
        }
      ],
      "name": "LogNewInvestment",
      "type": "event"
    },
    {
      "anonymous": false,
      "inputs": [
        {
          "indexed": false,
          "name": "add",
          "type": "address"
        }
      ],
      "name": "LogUser",
      "type": "event"
    },
    {
      "anonymous": false,
      "inputs": [
        {
          "indexed": false,
          "name": "investorAddress",
          "type": "address"
        },
        {
          "indexed": false,
          "name": "withdrawalAmount",
          "type": "uint256"
        }
      ],
      "name": "LogWithdrawalMade",
      "type": "event"
    },
    {
      "anonymous": false,
      "inputs": [
        {
          "indexed": false,
          "name": "investorAddress",
          "type": "address"
        },
        {
          "indexed": false,
          "name": "pendingWithdrawalAmount",
          "type": "uint256"
        }
      ],
      "name": "LogPendingWithdrawalAdded",
      "type": "event"
    },
    {
      "constant": false,
      "inputs": [
        {
          "name": "_remainingInvestment",
          "type": "uint256"
        }
      ],
      "name": "updateRemainingInvestment",
      "outputs": [
        {
          "name": "",
          "type": "bool"
        }
      ],
      "payable": false,
      "stateMutability": "nonpayable",
      "type": "function"
    },
    {
      "constant": false,
      "inputs": [],
      "name": "investMoney",
      "outputs": [],
      "payable": true,
      "stateMutability": "payable",
      "type": "function"
    },
    {
      "constant": false,
      "inputs": [],
      "name": "withdraw",
      "outputs": [],
      "payable": true,
      "stateMutability": "payable",
      "type": "function"
    },
    {
      "constant": false,
      "inputs": [],
      "name": "triggerDividend",
      "outputs": [
        {
          "name": "",
          "type": "uint256"
        }
      ],
      "payable": false,
      "stateMutability": "nonpayable",
      "type": "function"
    },
    {
      "constant": false,
      "inputs": [
        {
          "name": "currentAddress",
          "type": "address"
        }
      ],
      "name": "addPendingWithdrawals",
      "outputs": [
        {
          "name": "",
          "type": "uint256"
        }
      ],
      "payable": false,
      "stateMutability": "nonpayable",
      "type": "function"
    },
    {
      "constant": true,
      "inputs": [
        {
          "name": "investorAddress",
          "type": "address"
        },
        {
          "name": "index",
          "type": "uint256"
        }
      ],
      "name": "getInvestorInvestment",
      "outputs": [
        {
          "name": "returnInvestment",
          "type": "uint256"
        }
      ],
      "payable": false,
      "stateMutability": "view",
      "type": "function"
    },
    {
      "constant": true,
      "inputs": [
        {
          "name": "investorAddress",
          "type": "address"
        }
      ],
      "name": "getNumInvestorInvestment",
      "outputs": [
        {
          "name": "numInvestments",
          "type": "uint256"
        }
      ],
      "payable": false,
      "stateMutability": "view",
      "type": "function"
    },
    {
      "constant": true,
      "inputs": [
        {
          "name": "investorAddress",
          "type": "address"
        }
      ],
      "name": "getPendingWithdrawal",
      "outputs": [
        {
          "name": "pendingWithdrawal",
          "type": "uint256"
        }
      ],
      "payable": false,
      "stateMutability": "view",
      "type": "function"
    }
  ],
  "bytecode": "0x60806040526003600555600060085534801561001a57600080fd5b50604051604080611dae8339810180604052604081101561003a57600080fd5b81019080805190602001909291908051906020019092919050505080600481905550816000806101000a81548173ffffffffffffffffffffffffffffffffffffffff021916908373ffffffffffffffffffffffffffffffffffffffff16021790555081600160006101000a81548173ffffffffffffffffffffffffffffffffffffffff021916908373ffffffffffffffffffffffffffffffffffffffff1602179055506000600660006002811015156100ef57fe5b018190555060006006600160028110151561010657fe5b01819055505050611c928061011c6000396000f3fe608060405260043610610101576000357c01000000000000000000000000000000000000000000000000000000009004806310ea13df146101065780632ccc87271461013157806332f6eca5146101ac578063370a3918146102115780633ccfd60b1461023c57806341dab00a146102465780636bb80d51146102ab57806379ebb6c4146102d65780637ee8b2f81461037f57806381da62c7146103e4578063973a9a821461043b5780639b49969b14610445578063a342766b14610470578063af5cfae8146104c3578063b9c8c449146104ee578063bd68f8f614610553578063c6778b2e146105a2578063efabc74614610611578063f3f437031461063c575b600080fd5b34801561011257600080fd5b5061011b6106a1565b6040518082815260200191505060405180910390f35b34801561013d57600080fd5b5061016a6004803603602081101561015457600080fd5b81019080803590602001909291905050506106a7565b604051808273ffffffffffffffffffffffffffffffffffffffff1673ffffffffffffffffffffffffffffffffffffffff16815260200191505060405180910390f35b3480156101b857600080fd5b506101fb600480360360208110156101cf57600080fd5b81019080803573ffffffffffffffffffffffffffffffffffffffff1690602001909291905050506106e5565b6040518082815260200191505060405180910390f35b34801561021d57600080fd5b5061022661072e565b6040518082815260200191505060405180910390f35b610244610a92565b005b34801561025257600080fd5b506102956004803603602081101561026957600080fd5b81019080803573ffffffffffffffffffffffffffffffffffffffff169060200190929190505050610eb0565b6040518082815260200191505060405180910390f35b3480156102b757600080fd5b506102c0610ec8565b6040518082815260200191505060405180910390f35b3480156102e257600080fd5b5061032f600480360360408110156102f957600080fd5b81019080803573ffffffffffffffffffffffffffffffffffffffff16906020019092919080359060200190929190505050610ece565b604051808473ffffffffffffffffffffffffffffffffffffffff1673ffffffffffffffffffffffffffffffffffffffff168152602001838152602001828152602001935050505060405180910390f35b34801561038b57600080fd5b506103ce600480360360208110156103a257600080fd5b81019080803573ffffffffffffffffffffffffffffffffffffffff169060200190929190505050610f34565b6040518082815260200191505060405180910390f35b3480156103f057600080fd5b506103f9610f7d565b604051808273ffffffffffffffffffffffffffffffffffffffff1673ffffffffffffffffffffffffffffffffffffffff16815260200191505060405180910390f35b610443610fa3565b005b34801561045157600080fd5b5061045a611306565b6040518082815260200191505060405180910390f35b34801561047c57600080fd5b506104a96004803603602081101561049357600080fd5b810190808035906020019092919050505061130c565b604051808215151515815260200191505060405180910390f35b3480156104cf57600080fd5b506104d861142a565b6040518082815260200191505060405180910390f35b3480156104fa57600080fd5b5061053d6004803603602081101561051157600080fd5b81019080803573ffffffffffffffffffffffffffffffffffffffff169060200190929190505050611430565b6040518082815260200191505060405180910390f35b34801561055f57600080fd5b5061058c6004803603602081101561057657600080fd5b810190808035906020019092919050505061184f565b6040518082815260200191505060405180910390f35b3480156105ae57600080fd5b506105fb600480360360408110156105c557600080fd5b81019080803573ffffffffffffffffffffffffffffffffffffffff16906020019092919080359060200190929190505050611869565b6040518082815260200191505060405180910390f35b34801561061d57600080fd5b506106266118d1565b6040518082815260200191505060405180910390f35b34801561064857600080fd5b5061068b6004803603602081101561065f57600080fd5b81019080803573ffffffffffffffffffffffffffffffffffffffff1690602001909291905050506118d7565b6040518082815260200191505060405180910390f35b60025481565b6009818154811015156106b657fe5b906000526020600020016000915054906101000a900473ffffffffffffffffffffffffffffffffffffffff1681565b6000600a60008373ffffffffffffffffffffffffffffffffffffffff1673ffffffffffffffffffffffffffffffffffffffff168152602001908152602001600020549050919050565b600033600115156000809054906101000a900473ffffffffffffffffffffffffffffffffffffffff1673ffffffffffffffffffffffffffffffffffffffff166324d7806c836040518263ffffffff167c0100000000000000000000000000000000000000000000000000000000028152600401808273ffffffffffffffffffffffffffffffffffffffff1673ffffffffffffffffffffffffffffffffffffffff16815260200191505060206040518083038186803b1580156107ef57600080fd5b505afa158015610803573d6000803e3d6000fd5b505050506040513d602081101561081957600080fd5b8101908080519060200190929190505050151514151561083857600080fd5b60006003541115156108b2576040517f08c379a00000000000000000000000000000000000000000000000000000000081526004018080602001828103825260168152602001807f4e6f20617661696c61626c65206469766964656e64730000000000000000000081525060200191505060405180910390fd5b6064600254600554028115156108c457fe5b04600354111515610989576040517f08c379a00000000000000000000000000000000000000000000000000000000081526004018080602001828103825260458152602001807f4d757374206d61696e7461696e2061206365727461696e20696e766573746d6581526020017f6e74206c6576656c20696e206f7264657220746f20747269676765722064697681526020017f6964656e6400000000000000000000000000000000000000000000000000000081525060600191505060405180910390fd5b60006006600060028110151561099b57fe5b0154141515610a12576040517f08c379a00000000000000000000000000000000000000000000000000000000081526004018080602001828103825260208152602001807f5374696c6c206f6e2070726576696f7573206469766964656e64206379636c6581525060200191505060405180910390fd5b6000610a2b6004546003546118ef90919063ffffffff16565b9050610a416064826119bc90919063ffffffff16565b9050610a5881600354611a0690919063ffffffff16565b6003819055508060066000600281101515610a6f57fe5b01819055508060066001600281101515610a8557fe5b0181905550809250505090565b336000600c60008373ffffffffffffffffffffffffffffffffffffffff1673ffffffffffffffffffffffffffffffffffffffff16815260200190815260200160002080549050111515610b4d576040517f08c379a00000000000000000000000000000000000000000000000000000000081526004018080602001828103825260148152602001807f4e6f7420612076616c696420696e766573746f7200000000000000000000000081525060200191505060405180910390fd5b6000600b60008373ffffffffffffffffffffffffffffffffffffffff1673ffffffffffffffffffffffffffffffffffffffff16815260200190815260200160002054111515610c04576040517f08c379a00000000000000000000000000000000000000000000000000000000081526004018080602001828103825260208152602001807f4164647265737320686173206e6f207769746864726177616c20616d6f756e7481525060200191505060405180910390fd5b600b60008273ffffffffffffffffffffffffffffffffffffffff1673ffffffffffffffffffffffffffffffffffffffff1681526020019081526020016000205460066001600281101515610c5457fe5b0154111515610ccb576040517f08c379a000000000000000000000000000000000000000000000000000000000815260040180806020018281038252601a8152602001807f4572726f72202d206e6f20617661696c61626c652066756e647300000000000081525060200191505060405180910390fd5b6000600b60003373ffffffffffffffffffffffffffffffffffffffff1673ffffffffffffffffffffffffffffffffffffffff168152602001908152602001600020549050610d338160066001600281101515610d2357fe5b0154611a0690919063ffffffff16565b60066001600281101515610d4357fe5b01819055506000600b60003373ffffffffffffffffffffffffffffffffffffffff1673ffffffffffffffffffffffffffffffffffffffff168152602001908152602001600020819055506008600081548092919060010191905055506009805490506008541415610dfa576000600881905550600060066000600281101515610dc857fe5b0181905550610df360066001600281101515610de057fe5b0154600354611a5090919063ffffffff16565b6003819055505b3373ffffffffffffffffffffffffffffffffffffffff166108fc829081150290604051600060405180830381858888f19350505050158015610e40573d6000803e3d6000fd5b507fa502fd41811afb69adfdfadf22b00a476d683cb0e8fcb04ecef9e331e2a26a6d3382604051808373ffffffffffffffffffffffffffffffffffffffff1673ffffffffffffffffffffffffffffffffffffffff1681526020018281526020019250505060405180910390a15050565b600a6020528060005260406000206000915090505481565b60045481565b600c60205281600052604060002081815481101515610ee957fe5b9060005260206000209060030201600091509150508060000160009054906101000a900473ffffffffffffffffffffffffffffffffffffffff16908060010154908060020154905083565b6000600b60008373ffffffffffffffffffffffffffffffffffffffff1673ffffffffffffffffffffffffffffffffffffffff168152602001908152602001600020549050919050565b600160009054906101000a900473ffffffffffffffffffffffffffffffffffffffff1681565b60003411151561101b576040517f08c379a000000000000000000000000000000000000000000000000000000000815260040180806020018281038252601a8152602001807f41747461636820616e20696e766573746d656e742076616c756500000000000081525060200191505060405180910390fd5b60003490506000600c60003373ffffffffffffffffffffffffffffffffffffffff1673ffffffffffffffffffffffffffffffffffffffff1681526020019081526020016000208054905014156110d25760093390806001815401808255809150509060018203906000526020600020016000909192909190916101000a81548173ffffffffffffffffffffffffffffffffffffffff021916908373ffffffffffffffffffffffffffffffffffffffff160217905550505b600c60003373ffffffffffffffffffffffffffffffffffffffff1673ffffffffffffffffffffffffffffffffffffffff1681526020019081526020016000206060604051908101604052803373ffffffffffffffffffffffffffffffffffffffff168152602001428152602001838152509080600181540180825580915050906001820390600052602060002090600302016000909192909190915060008201518160000160006101000a81548173ffffffffffffffffffffffffffffffffffffffff021916908373ffffffffffffffffffffffffffffffffffffffff160217905550602082015181600101556040820151816002015550505061121f6001600a60003373ffffffffffffffffffffffffffffffffffffffff1673ffffffffffffffffffffffffffffffffffffffff16815260200190815260200160002054611a5090919063ffffffff16565b600a60003373ffffffffffffffffffffffffffffffffffffffff1673ffffffffffffffffffffffffffffffffffffffff1681526020019081526020016000208190555061127781600254611a5090919063ffffffff16565b60028190555061129281600354611a5090919063ffffffff16565b6003819055507f012335398b2ec0286f8c0396759e9608b4e163f51d06d11116dd801b2b47c60f3382604051808373ffffffffffffffffffffffffffffffffffffffff1673ffffffffffffffffffffffffffffffffffffffff1681526020018281526020019250505060405180910390a150565b60055481565b600033600115156000809054906101000a900473ffffffffffffffffffffffffffffffffffffffff1673ffffffffffffffffffffffffffffffffffffffff166324d7806c836040518263ffffffff167c0100000000000000000000000000000000000000000000000000000000028152600401808273ffffffffffffffffffffffffffffffffffffffff1673ffffffffffffffffffffffffffffffffffffffff16815260200191505060206040518083038186803b1580156113cd57600080fd5b505afa1580156113e1573d6000803e3d6000fd5b505050506040513d60208110156113f757600080fd5b8101908080519060200190929190505050151514151561141657600080fd5b826003819055508260035414915050919050565b60035481565b600033600115156000809054906101000a900473ffffffffffffffffffffffffffffffffffffffff1673ffffffffffffffffffffffffffffffffffffffff166324d7806c836040518263ffffffff167c0100000000000000000000000000000000000000000000000000000000028152600401808273ffffffffffffffffffffffffffffffffffffffff1673ffffffffffffffffffffffffffffffffffffffff16815260200191505060206040518083038186803b1580156114f157600080fd5b505afa158015611505573d6000803e3d6000fd5b505050506040513d602081101561151b57600080fd5b8101908080519060200190929190505050151514151561153a57600080fd5b600080905060008090505b600c60008673ffffffffffffffffffffffffffffffffffffffff1673ffffffffffffffffffffffffffffffffffffffff168152602001908152602001600020805490508110156116c5578473ffffffffffffffffffffffffffffffffffffffff16600c60008773ffffffffffffffffffffffffffffffffffffffff1673ffffffffffffffffffffffffffffffffffffffff168152602001908152602001600020828154811015156115f257fe5b906000526020600020906003020160000160009054906101000a900473ffffffffffffffffffffffffffffffffffffffff1673ffffffffffffffffffffffffffffffffffffffff1614151561164657600080fd5b6116b6600c60008773ffffffffffffffffffffffffffffffffffffffff1673ffffffffffffffffffffffffffffffffffffffff1681526020019081526020016000208281548110151561169557fe5b90600052602060002090600302016002015483611a5090919063ffffffff16565b91508080600101915050611545565b5060006116ec600660006002811015156116db57fe5b0154836118ef90919063ffffffff16565b9050611703600254826119bc90919063ffffffff16565b905061175781600b60008873ffffffffffffffffffffffffffffffffffffffff1673ffffffffffffffffffffffffffffffffffffffff16815260200190815260200160002054611a5090919063ffffffff16565b600b60008773ffffffffffffffffffffffffffffffffffffffff1673ffffffffffffffffffffffffffffffffffffffff168152602001908152602001600020819055507f42f69d5213292b7ba6e1e5a1f251f6edca6f86e95f14e89871ebb5e9fa5099b885600b60008873ffffffffffffffffffffffffffffffffffffffff1673ffffffffffffffffffffffffffffffffffffffff16815260200190815260200160002054604051808373ffffffffffffffffffffffffffffffffffffffff1673ffffffffffffffffffffffffffffffffffffffff1681526020018281526020019250505060405180910390a1809350505050919050565b60068160028110151561185e57fe5b016000915090505481565b6000600c60008473ffffffffffffffffffffffffffffffffffffffff1673ffffffffffffffffffffffffffffffffffffffff168152602001908152602001600020828154811015156118b757fe5b906000526020600020906003020160020154905092915050565b60085481565b600b6020528060005260406000206000915090505481565b60008083141561190257600090506119b6565b6000828402905082848281151561191557fe5b041415156119b1576040517f08c379a00000000000000000000000000000000000000000000000000000000081526004018080602001828103825260218152602001807f536166654d6174683a206d756c7469706c69636174696f6e206f766572666c6f81526020017f770000000000000000000000000000000000000000000000000000000000000081525060400191505060405180910390fd5b809150505b92915050565b60006119fe83836040805190810160405280601a81526020017f536166654d6174683a206469766973696f6e206279207a65726f000000000000815250611ada565b905092915050565b6000611a4883836040805190810160405280601e81526020017f536166654d6174683a207375627472616374696f6e206f766572666c6f770000815250611ba4565b905092915050565b6000808284019050838110151515611ad0576040517f08c379a000000000000000000000000000000000000000000000000000000000815260040180806020018281038252601b8152602001807f536166654d6174683a206164646974696f6e206f766572666c6f77000000000081525060200191505060405180910390fd5b8091505092915050565b600080831182901515611b88576040517f08c379a00000000000000000000000000000000000000000000000000000000081526004018080602001828103825283818151815260200191508051906020019080838360005b83811015611b4d578082015181840152602081019050611b32565b50505050905090810190601f168015611b7a5780820380516001836020036101000a031916815260200191505b509250505060405180910390fd5b5060008385811515611b9657fe5b049050809150509392505050565b60008383111582901515611c53576040517f08c379a00000000000000000000000000000000000000000000000000000000081526004018080602001828103825283818151815260200191508051906020019080838360005b83811015611c18578082015181840152602081019050611bfd565b50505050905090810190601f168015611c455780820380516001836020036101000a031916815260200191505b509250505060405180910390fd5b506000838503905080915050939250505056fea165627a7a72305820eb3eff319fd0afbcf885bcef4d81c5014ad6610c8f44f355fe0a03f1e89217f10029",
  "source": "pragma solidity >=0.5.0;\r\n\r\nimport \"@openzeppelin/contracts/math/SafeMath.sol\";\r\n\r\nimport \"./PtoP.sol\";\r\n\r\ncontract BatteryInvestment {\r\n    using SafeMath for uint256;\r\n\r\n    PtoP internal PtoPContract;\r\n    address public PtoPAddress;\r\n    // defines an investment\r\n    struct Investment {\r\n        address investorAddress; // address of investor\r\n        uint256 timestamp; // timestamp of their investment\r\n        uint256 investmentAmount; // in wei\r\n    }\r\n    // State variables\r\n    uint256 public totalInvestment; // total investment (without accounting for purchases)\r\n    uint256 public remainingInvestment; // remaining investment (total investment - battery purchases)\r\n    uint256 public dividendPercentage; // percentage of remaining investment money allowed to be used for dividends\r\n    uint256 public investmentPercentage = 3; // percentage of total investment which must remain for a dividend to be triggered\r\n    // already-triggered dividends an investor can retrieve\r\n    // pendingTotalWithdrawals[0]: original amount of dividends for the period.\r\n    // must reset to 0 to allow next dividend cycle to be triggered. Keep track of\r\n    // initial total dividend amount to calculate withdrawal amount for each investor\r\n    // pendingTotalWithdrawals[1]: remaining withdrawal remaining for the dividend period\r\n    uint256[2] public pendingTotalWithdrawals;\r\n    uint256 public numInvestorsWithdraw = 0; // keep track of # of investors who have withdrawn during this dividend period\r\n    address[] public investorsList; // list of investors for easier retrieval\r\n    mapping(address => uint256) public numInvestorInvestments; // to account for how many investments made per investor\r\n    mapping(address => uint256) public pendingWithdrawals; // pending withdrawals for each investor\r\n    mapping(address => Investment[]) public investors; // to account for multiple investments per investor\r\n\r\n    // Events\r\n    event LogNewInvestment(address investorAddress, uint256 investmentAmount);\r\n    event LogUser(address add);\r\n    event LogWithdrawalMade(address investorAddress, uint256 withdrawalAmount);\r\n    event LogPendingWithdrawalAdded(\r\n        address investorAddress,\r\n        uint256 pendingWithdrawalAmount\r\n    );\r\n\r\n    // Modifiers\r\n    modifier enoughInvestmentModifier() {\r\n        require(msg.value > 0, \"Attach an investment value\");\r\n        _;\r\n    }\r\n    modifier isValidWithdrawalModifier(address investorAddress) {\r\n        // check that withdrawal is allowed. Must have an investment, existing\r\n        // withdrawals pending, and available funds for the withdrawal to proceed\r\n        require(investors[investorAddress].length > 0, \"Not a valid investor\");\r\n        require(\r\n            pendingWithdrawals[investorAddress] > 0,\r\n            \"Address has no withdrawal amount\"\r\n        );\r\n        require(\r\n            pendingTotalWithdrawals[1] > pendingWithdrawals[investorAddress],\r\n            \"Error - no available funds\"\r\n        );\r\n        _;\r\n    }\r\n\r\n    modifier isValidDividendTriggerModifier() {\r\n        // dividend is only allowed if:\r\n        // there is remaining investment amount\r\n        // ensure remainingInvestment is within investmentPercentage of the total investment\r\n        // pendingTotalWithdrawals is reset to 0\r\n        require(remainingInvestment > 0, \"No available dividends\");\r\n        require(\r\n            remainingInvestment >\r\n                (investmentPercentage * totalInvestment) / 100,\r\n            \"Must maintain a certain investment level in order to trigger dividend\"\r\n        );\r\n        require(\r\n            pendingTotalWithdrawals[0] == 0,\r\n            \"Still on previous dividend cycle\"\r\n        );\r\n        _;\r\n    }\r\n\r\n    // confirm user calling contract is admin\r\n    modifier isAdmin(address msgAddress) {\r\n        require(PtoPContract.isAdmin(msgAddress) == true);\r\n        _;\r\n    }\r\n\r\n    // contructor\r\n    /// @param _PtoPAddress address of parent contract\r\n    /// @param _dividendPercentage set dividend percentage threshold\r\n    constructor(address _PtoPAddress, uint256 _dividendPercentage) public {\r\n        dividendPercentage = _dividendPercentage;\r\n        // create PtoP contract from parent contract address\r\n        PtoPContract = PtoP(_PtoPAddress);\r\n        PtoPAddress = _PtoPAddress;\r\n        // initialize pendingTotalWithdrawals with 0 for initial period\r\n        pendingTotalWithdrawals[0] = 0;\r\n        pendingTotalWithdrawals[1] = 0;\r\n    }\r\n\r\n    // External functions\r\n    /// @notice force alter remaining investment (admin override)\r\n    /// @param _remainingInvestment remaining investment value\r\n    /// @return whether var succesfully updated\r\n    function updateRemainingInvestment(\r\n        uint256 _remainingInvestment\r\n    ) external isAdmin(msg.sender) returns (bool) {\r\n        remainingInvestment = _remainingInvestment;\r\n        return (remainingInvestment == _remainingInvestment);\r\n    }\r\n\r\n    /// @notice invest eth into fund\r\n    /// @dev must send ether to this function\r\n    function investMoney() external payable enoughInvestmentModifier {\r\n        // investment amount is value attached to function call\r\n        uint256 investAmount = msg.value;\r\n        // if investor has not had previous investor, add them to the list\r\n        if (investors[msg.sender].length == 0) {\r\n            investorsList.push(msg.sender);\r\n        }\r\n        // add investor struct to investor array\r\n        investors[msg.sender].push(\r\n            Investment({\r\n                investorAddress: msg.sender,\r\n                timestamp: now,\r\n                investmentAmount: investAmount\r\n            })\r\n        );\r\n        numInvestorInvestments[msg.sender] = numInvestorInvestments[msg.sender]\r\n            .add(1);\r\n        // update the total amount of investment\r\n        totalInvestment = totalInvestment.add(investAmount);\r\n        // update the remaining amount of investment\r\n        remainingInvestment = remainingInvestment.add(investAmount);\r\n\r\n        emit LogNewInvestment(msg.sender, investAmount);\r\n    }\r\n\r\n    /// @notice withdraw dividend\r\n    /// @dev receive eth\r\n    function withdraw() external payable isValidWithdrawalModifier(msg.sender) {\r\n        uint256 withdrawalAmount = pendingWithdrawals[msg.sender];\r\n        // retrieve dividend amount for particular user\r\n        pendingTotalWithdrawals[1] = pendingTotalWithdrawals[1].sub(\r\n            withdrawalAmount\r\n        );\r\n        // Zero the pending refund before\r\n        // sending to prevent re-entrancy attacks\r\n        pendingWithdrawals[msg.sender] = 0;\r\n        // increase the number of withdrawn dividends during current cycle\r\n        numInvestorsWithdraw++;\r\n        // if all investors have withdrawn their dividend, reset\r\n        if (numInvestorsWithdraw == investorsList.length) {\r\n            numInvestorsWithdraw = 0;\r\n            pendingTotalWithdrawals[0] = 0;\r\n            remainingInvestment = remainingInvestment.add(\r\n                pendingTotalWithdrawals[1]\r\n            );\r\n        }\r\n        msg.sender.transfer(withdrawalAmount);\r\n        emit LogWithdrawalMade(msg.sender, withdrawalAmount);\r\n    }\r\n\r\n    /// @notice admin can trigger a dividend to be paid out to investors\r\n    /// @return whether dividend triggered successfully\r\n    function triggerDividend()\r\n        external\r\n        isAdmin(msg.sender)\r\n        isValidDividendTriggerModifier\r\n        returns (uint256)\r\n    {\r\n        // dividend to be divided up among investors during this cycle\r\n        // a percentage of the remaining investment\r\n        uint256 totalCurrentDividend = remainingInvestment.mul(\r\n            dividendPercentage\r\n        );\r\n        totalCurrentDividend = totalCurrentDividend.div(100);\r\n        // // zero out value first\r\n        remainingInvestment = remainingInvestment.sub(totalCurrentDividend);\r\n        // set both values in the pendingTotalWithdrawals array\r\n        // for the amt to be withdrawn and total left\r\n        pendingTotalWithdrawals[0] = totalCurrentDividend;\r\n        pendingTotalWithdrawals[1] = totalCurrentDividend;\r\n        return totalCurrentDividend;\r\n    }\r\n\r\n    /// @notice add withdrawals, transfer from outstanding dividend to each\r\n    /// @notice individual investor\r\n    /// @param currentAddress investor address for dividend\r\n    function addPendingWithdrawals(\r\n        address currentAddress\r\n    ) external isAdmin(msg.sender) returns (uint256) {\r\n        // initialize current investor's summed investment amount\r\n        uint256 totalCurrentInvestorAmt = 0;\r\n        // loop through each investment made by current investor\r\n        for (uint256 i = 0; i < investors[currentAddress].length; i++) {\r\n            // require each investment was made by this investor\r\n            require(\r\n                investors[currentAddress][i].investorAddress == currentAddress\r\n            );\r\n            // sum up all investments made by current investor\r\n            totalCurrentInvestorAmt = totalCurrentInvestorAmt.add(\r\n                investors[currentAddress][i].investmentAmount\r\n            );\r\n        }\r\n        // calculate dividend based on ratio of investments made to the total fund\r\n        uint256 totalUserDividend = totalCurrentInvestorAmt.mul(\r\n            pendingTotalWithdrawals[0]\r\n        );\r\n        totalUserDividend = totalUserDividend.div(totalInvestment);\r\n        // add new dividend to what remains in investor's withdrawal pool\r\n        pendingWithdrawals[currentAddress] = pendingWithdrawals[currentAddress]\r\n            .add(totalUserDividend);\r\n        emit LogPendingWithdrawalAdded(\r\n            currentAddress,\r\n            pendingWithdrawals[currentAddress]\r\n        );\r\n        return totalUserDividend;\r\n    }\r\n\r\n    // External functions that are view\r\n\r\n    /// getInvestorInvestment\r\n    /// @notice retrieve investment amount for a particular investment, because\r\n    /// @notice multiple are available per user, submit index too\r\n    /// @param investorAddress investor address\r\n    /// @param index of their investment (for multiple investments) else should be 0\r\n    function getInvestorInvestment(\r\n        address investorAddress,\r\n        uint256 index\r\n    ) external view returns (uint256 returnInvestment) {\r\n        returnInvestment = investors[investorAddress][index].investmentAmount;\r\n    }\r\n\r\n    /// getNumInvestorInvestment\r\n    /// get how many investments made from that user address\r\n    /// @param investorAddress investor address\r\n    function getNumInvestorInvestment(\r\n        address investorAddress\r\n    ) external view returns (uint256 numInvestments) {\r\n        numInvestments = numInvestorInvestments[investorAddress];\r\n    }\r\n\r\n    /// getNumInvestorInvestment\r\n    /// get how many investments made from that user address\r\n    /// @param investorAddress investor address\r\n    function getPendingWithdrawal(\r\n        address investorAddress\r\n    ) external view returns (uint256 pendingWithdrawal) {\r\n        pendingWithdrawal = pendingWithdrawals[investorAddress];\r\n    }\r\n}\r\n",
  "sourcePath": "/mnt/c/Users/Owner/Documents/energytrading - storage/my-app/contracts/BatteryInvestment.sol",
  "compiler": {
    "name": "solc",
    "version": "0.5.1+commit.c8a2cb62.Emscripten.clang"
  },
  "schemaVersion": "3.4.16",
  "updatedAt": "2025-08-30T12:54:01.129Z",
  "networkType": "ethereum",
  "devdoc": {
    "methods": {
      "addPendingWithdrawals(address)": {
        "params": {
          "currentAddress": "investor address for dividend"
        }
      },
      "constructor": {
        "params": {
          "_dividendPercentage": "set dividend percentage threshold"
        }
      },
      "getInvestorInvestment(address,uint256)": {
        "params": {
          "index": "of their investment (for multiple investments) else should be 0"
        }
      },
      "getNumInvestorInvestment(address)": {
        "params": {
          "investorAddress": "investor address"
        }
      },
      "getPendingWithdrawal(address)": {
        "params": {
          "investorAddress": "investor address"
        }
      },
      "investMoney()": {
        "details": "must send ether to this function"
      },
      "triggerDividend()": {
        "return": "whether dividend triggered successfully"
      },
      "updateRemainingInvestment(uint256)": {
        "return": "whether var succesfully updated"
      },
      "withdraw()": {
        "details": "receive eth"
      }
    }
  },
  "userdoc": {
    "methods": {}
  }
}