{
  "contractName": "BatteryEnergy",
  "abi": [
    {
      "constant": true,
      "inputs": [],
      "name": "purchaseInterval",
      "outputs": [
        {
          "name": "",
          "type": "uint256"
        }
      ],
      "payable": false,
      "stateMutability": "view",
      "type": "function"
    },
    {
      "constant": true,
      "inputs": [],
      "name": "PtoPAddress",
      "outputs": [
        {
          "name": "",
          "type": "address"
        }
      ],
      "payable": false,
      "stateMutability": "view",
      "type": "function"
    },
    {
      "constant": true,
      "inputs": [],
      "name": "batteryIDCounter",
      "outputs": [
        {
          "name": "",
          "type": "uint256"
        }
      ],
      "payable": false,
      "stateMutability": "view",
      "type": "function"
    },
    {
      "constant": true,
      "inputs": [],
      "name": "batchProcess",
      "outputs": [
        {
          "name": "",
          "type": "uint256"
        }
      ],
      "payable": false,
      "stateMutability": "view",
      "type": "function"
    },
    {
      "inputs": [
        {
          "name": "_PtoPAddress",
          "type": "address"
        }
      ],
      "payable": false,
      "stateMutability": "nonpayable",
      "type": "constructor"
    },
    {
      "anonymous": false,
      "inputs": [
        {
          "indexed": false,
          "name": "batteryID",
          "type": "uint256"
        }
      ],
      "name": "LogBatteryCheck",
      "type": "event"
    },
    {
      "anonymous": false,
      "inputs": [],
      "name": "LogBatteryCheckCompleted",
      "type": "event"
    },
    {
      "anonymous": false,
      "inputs": [
        {
          "indexed": false,
          "name": "serialNumber",
          "type": "bytes32"
        },
        {
          "indexed": false,
          "name": "energyTransacted",
          "type": "uint256"
        },
        {
          "indexed": false,
          "name": "energyPrice",
          "type": "uint256"
        }
      ],
      "name": "LogEnergyPurchased",
      "type": "event"
    },
    {
      "anonymous": false,
      "inputs": [
        {
          "indexed": false,
          "name": "serialNumber",
          "type": "bytes32"
        },
        {
          "indexed": false,
          "name": "energyTransacted",
          "type": "uint256"
        },
        {
          "indexed": false,
          "name": "energyPrice",
          "type": "uint256"
        }
      ],
      "name": "LogEnergySold",
      "type": "event"
    },
    {
      "constant": false,
      "inputs": [],
      "name": "checkBatteryEnergy",
      "outputs": [
        {
          "name": "",
          "type": "bool"
        }
      ],
      "payable": false,
      "stateMutability": "nonpayable",
      "type": "function"
    }
  ],
  "bytecode": "0x6080604052610e10600255600360045534801561001b57600080fd5b506040516020806117e08339810180604052602081101561003b57600080fd5b810190808051906020019092919050505080600160006101000a81548173ffffffffffffffffffffffffffffffffffffffff021916908373ffffffffffffffffffffffffffffffffffffffff160217905550806000806101000a81548173ffffffffffffffffffffffffffffffffffffffff021916908373ffffffffffffffffffffffffffffffffffffffff16021790555050611703806100dd6000396000f3fe608060405260043610610067576000357c0100000000000000000000000000000000000000000000000000000000900480630fc646911461006c5780634fef23641461009757806381da62c7146100c65780638f501a9b1461011d578063cdcf631614610148575b600080fd5b34801561007857600080fd5b50610081610173565b6040518082815260200191505060405180910390f35b3480156100a357600080fd5b506100ac610179565b604051808215151515815260200191505060405180910390f35b3480156100d257600080fd5b506100db610398565b604051808273ffffffffffffffffffffffffffffffffffffffff1673ffffffffffffffffffffffffffffffffffffffff16815260200191505060405180910390f35b34801561012957600080fd5b506101326103be565b6040518082815260200191505060405180910390f35b34801561015457600080fd5b5061015d6103c4565b6040518082815260200191505060405180910390f35b60025481565b600080600080600090505b60045481101561038d576000809054906101000a900473ffffffffffffffffffffffffffffffffffffffff1673ffffffffffffffffffffffffffffffffffffffff166364e980726003546040518263ffffffff167c01000000000000000000000000000000000000000000000000000000000281526004018082815260200191505060206040518083038186803b15801561021e57600080fd5b505afa158015610232573d6000803e3d6000fd5b505050506040513d602081101561024857600080fd5b81019080805190602001909291905050509250610264836103ca565b8201915060016003600082825401925050819055506000809054906101000a900473ffffffffffffffffffffffffffffffffffffffff1673ffffffffffffffffffffffffffffffffffffffff16637ab9be186040518163ffffffff167c010000000000000000000000000000000000000000000000000000000002815260040160206040518083038186803b1580156102fc57600080fd5b505afa158015610310573d6000803e3d6000fd5b505050506040513d602081101561032657600080fd5b810190808051906020019092919050505060035414156103805760006003819055507f2a337d71f9f377b9df07c7d0b3b45e113342364e6da3faa740095ae43dbfb67260405160405180910390a160019350505050610395565b8080600101915050610184565b506000925050505b90565b600160009054906101000a900473ffffffffffffffffffffffffffffffffffffffff1681565b60035481565b60045481565b60008060006103d7610751565b90507f43e0d79edab99ad436795e03537a27e8192b11095f7d9e54e8748f538f75910c846040518082815260200191505060405180910390a160008060008060008060008060009054906101000a900473ffffffffffffffffffffffffffffffffffffffff1673ffffffffffffffffffffffffffffffffffffffff16633dcd20f48c6040518263ffffffff167c01000000000000000000000000000000000000000000000000000000000281526004018082815260200191505060e06040518083038186803b1580156104a957600080fd5b505afa1580156104bd573d6000803e3d6000fd5b505050506040513d60e08110156104d357600080fd5b81019080805190602001909291908051906020019092919080519060200190929190805190602001909291908051906020019092919080519060200190929190805190602001909291905050509650965096509650965096509650600115158215151415156105aa576040517f08c379a00000000000000000000000000000000000000000000000000000000081526004018080602001828103825260188152602001807f426174746572792073686f756c6420626520616374697665000000000000000081525060200191505060405180910390fd5b60006105b6858a61075b565b905060011515811515141561072e5760008060009054906101000a900473ffffffffffffffffffffffffffffffffffffffff1673ffffffffffffffffffffffffffffffffffffffff166369777fce6040518163ffffffff167c010000000000000000000000000000000000000000000000000000000002815260040160206040518083038186803b15801561064a57600080fd5b505afa15801561065e573d6000803e3d6000fd5b505050506040513d602081101561067457600080fd5b810190808051906020019092919050505073ffffffffffffffffffffffffffffffffffffffff1663af5cfae86040518163ffffffff167c010000000000000000000000000000000000000000000000000000000002815260040160206040518083038186803b1580156106e657600080fd5b505afa1580156106fa573d6000803e3d6000fd5b505050506040513d602081101561071057600080fd5b810190808051906020019092919050505011151561072d57600080fd5b5b61073d8c898989888e87610779565b9950899a5050505050505050505050919050565b6000611388905090565b60008183111561076e5760019050610773565b600090505b92915050565b600080610793610e10600254610ae390919063ffffffff16565b905060008789039050600115158415151415610a6457600081111515610847576040517f08c379a00000000000000000000000000000000000000000000000000000000081526004018080602001828103825260398152602001807f426174746572792073686f756c6420686176652072656d61696e696e6720636181526020017f70616369747920696e206f7264657220746f206368617267650000000000000081525060400191505060405180910390fd5b600061085c8388610b2d90919063ffffffff16565b90506108718282610bfa90919063ffffffff16565b935060008060009054906101000a900473ffffffffffffffffffffffffffffffffffffffff1673ffffffffffffffffffffffffffffffffffffffff166369777fce6040518163ffffffff167c010000000000000000000000000000000000000000000000000000000002815260040160206040518083038186803b1580156108f857600080fd5b505afa15801561090c573d6000803e3d6000fd5b505050506040513d602081101561092257600080fd5b810190808051906020019092919050505073ffffffffffffffffffffffffffffffffffffffff1663af5cfae86040518163ffffffff167c010000000000000000000000000000000000000000000000000000000002815260040160206040518083038186803b15801561099457600080fd5b505afa1580156109a8573d6000803e3d6000fd5b505050506040513d60208110156109be57600080fd5b8101908080519060200190929190505050905060006109e68887610b2d90919063ffffffff16565b905081811115610a0957819050610a068883610ae390919063ffffffff16565b95505b610a148d878a610c13565b507f296a30a2a2c9836b929a5bd912a99404f742866c6f1d2ccb40dbe91ae51d0c8b8a878a60405180848152602001838152602001828152602001935050505060405180910390a1505050610ad6565b610a80610a7a8388610b2d90919063ffffffff16565b89610bfa565b9250610a8d8a8487611096565b507fa47998a00343b402e4fe19ddd70ec87f868ffa405b95a5e6a1d554a83f809e7c87848760405180848152602001838152602001828152602001935050505060405180910390a15b5050979650505050505050565b6000610b2583836040805190810160405280601a81526020017f536166654d6174683a206469766973696f6e206279207a65726f000000000000815250611477565b905092915050565b600080831415610b405760009050610bf4565b60008284029050828482811515610b5357fe5b04141515610bef576040517f08c379a00000000000000000000000000000000000000000000000000000000081526004018080602001828103825260218152602001807f536166654d6174683a206d756c7469706c69636174696f6e206f766572666c6f81526020017f770000000000000000000000000000000000000000000000000000000000000081525060400191505060405180910390fd5b809150505b92915050565b6000818310610c095781610c0b565b825b905092915050565b6000806000809054906101000a900473ffffffffffffffffffffffffffffffffffffffff1673ffffffffffffffffffffffffffffffffffffffff166369777fce6040518163ffffffff167c010000000000000000000000000000000000000000000000000000000002815260040160206040518083038186803b158015610c9957600080fd5b505afa158015610cad573d6000803e3d6000fd5b505050506040513d6020811015610cc357600080fd5b810190808051906020019092919050505073ffffffffffffffffffffffffffffffffffffffff1663af5cfae86040518163ffffffff167c010000000000000000000000000000000000000000000000000000000002815260040160206040518083038186803b158015610d3557600080fd5b505afa158015610d49573d6000803e3d6000fd5b505050506040513d6020811015610d5f57600080fd5b810190808051906020019092919050505090506000610d99610d8a8587610b2d90919063ffffffff16565b8361154190919063ffffffff16565b905060008110151515610e3a576040517f08c379a00000000000000000000000000000000000000000000000000000000081526004018080602001828103825260268152602001807f4e6f7420656e6f756768206d6f6e657920746f206d616b65207468697320707581526020017f726368617365000000000000000000000000000000000000000000000000000081525060400191505060405180910390fd5b6000809054906101000a900473ffffffffffffffffffffffffffffffffffffffff1673ffffffffffffffffffffffffffffffffffffffff166369777fce6040518163ffffffff167c010000000000000000000000000000000000000000000000000000000002815260040160206040518083038186803b158015610ebd57600080fd5b505afa158015610ed1573d6000803e3d6000fd5b505050506040513d6020811015610ee757600080fd5b810190808051906020019092919050505073ffffffffffffffffffffffffffffffffffffffff1663a342766b826040518263ffffffff167c010000000000000000000000000000000000000000000000000000000002815260040180828152602001915050602060405180830381600087803b158015610f6657600080fd5b505af1158015610f7a573d6000803e3d6000fd5b505050506040513d6020811015610f9057600080fd5b810190808051906020019092919050505015611088576000809054906101000a900473ffffffffffffffffffffffffffffffffffffffff1673ffffffffffffffffffffffffffffffffffffffff1663460fafbc87876000036040518363ffffffff167c01000000000000000000000000000000000000000000000000000000000281526004018083815260200182815260200192505050602060405180830381600087803b15801561104157600080fd5b505af1158015611055573d6000803e3d6000fd5b505050506040513d602081101561106b57600080fd5b81019080805190602001909291905050505060019250505061108f565b6000925050505b9392505050565b6000806000809054906101000a900473ffffffffffffffffffffffffffffffffffffffff1673ffffffffffffffffffffffffffffffffffffffff166369777fce6040518163ffffffff167c010000000000000000000000000000000000000000000000000000000002815260040160206040518083038186803b15801561111c57600080fd5b505afa158015611130573d6000803e3d6000fd5b505050506040513d602081101561114657600080fd5b810190808051906020019092919050505073ffffffffffffffffffffffffffffffffffffffff1663af5cfae86040518163ffffffff167c010000000000000000000000000000000000000000000000000000000002815260040160206040518083038186803b1580156111b857600080fd5b505afa1580156111cc573d6000803e3d6000fd5b505050506040513d60208110156111e257600080fd5b81019080805190602001909291905050509050600061121c61120d8587610b2d90919063ffffffff16565b8361158b90919063ffffffff16565b90506000809054906101000a900473ffffffffffffffffffffffffffffffffffffffff1673ffffffffffffffffffffffffffffffffffffffff166369777fce6040518163ffffffff167c010000000000000000000000000000000000000000000000000000000002815260040160206040518083038186803b1580156112a157600080fd5b505afa1580156112b5573d6000803e3d6000fd5b505050506040513d60208110156112cb57600080fd5b810190808051906020019092919050505073ffffffffffffffffffffffffffffffffffffffff1663a342766b826040518263ffffffff167c010000000000000000000000000000000000000000000000000000000002815260040180828152602001915050602060405180830381600087803b15801561134a57600080fd5b505af115801561135e573d6000803e3d6000fd5b505050506040513d602081101561137457600080fd5b810190808051906020019092919050505015611469576000809054906101000a900473ffffffffffffffffffffffffffffffffffffffff1673ffffffffffffffffffffffffffffffffffffffff1663460fafbc87876040518363ffffffff167c01000000000000000000000000000000000000000000000000000000000281526004018083815260200182815260200192505050602060405180830381600087803b15801561142257600080fd5b505af1158015611436573d6000803e3d6000fd5b505050506040513d602081101561144c57600080fd5b810190808051906020019092919050505050600192505050611470565b6000925050505b9392505050565b600080831182901515611525576040517f08c379a00000000000000000000000000000000000000000000000000000000081526004018080602001828103825283818151815260200191508051906020019080838360005b838110156114ea5780820151818401526020810190506114cf565b50505050905090810190601f1680156115175780820380516001836020036101000a031916815260200191505b509250505060405180910390fd5b506000838581151561153357fe5b049050809150509392505050565b600061158383836040805190810160405280601e81526020017f536166654d6174683a207375627472616374696f6e206f766572666c6f770000815250611615565b905092915050565b600080828401905083811015151561160b576040517f08c379a000000000000000000000000000000000000000000000000000000000815260040180806020018281038252601b8152602001807f536166654d6174683a206164646974696f6e206f766572666c6f77000000000081525060200191505060405180910390fd5b8091505092915050565b600083831115829015156116c4576040517f08c379a00000000000000000000000000000000000000000000000000000000081526004018080602001828103825283818151815260200191508051906020019080838360005b8381101561168957808201518184015260208101905061166e565b50505050905090810190601f1680156116b65780820380516001836020036101000a031916815260200191505b509250505060405180910390fd5b506000838503905080915050939250505056fea165627a7a72305820d00200e9485d46e8e791466042713abd0d277d2c2ed48b3ecfe69a2bb546d4340029",
  "source": "pragma solidity >=0.5.0;\r\n\r\nimport \"@openzeppelin/contracts/math/SafeMath.sol\";\r\nimport \"@openzeppelin/contracts/math/Math.sol\";\r\n\r\nimport \"./PtoP.sol\";\r\n\r\ncontract BatteryEnergy {\r\n    using SafeMath for uint256;\r\n    using Math for uint256;\r\n\r\n    PtoP PtoPContract;\r\n\r\n    address public PtoPAddress; // address of parent contract deploying battery investment\r\n    uint256 public purchaseInterval = 3600; // in sec, prescribed time between energy tx\r\n    uint256 public batteryIDCounter; // for batch processes; the latest battery ID processed\r\n    uint256 public batchProcess = 3; // number of batteries in the batch to process at once\r\n\r\n    event LogBatteryCheck(uint256 batteryID);\r\n    event LogBatteryCheckCompleted();\r\n    event LogEnergyPurchased(\r\n        bytes32 serialNumber,\r\n        uint256 energyTransacted,\r\n        uint256 energyPrice\r\n    );\r\n    event LogEnergySold(\r\n        bytes32 serialNumber,\r\n        uint256 energyTransacted,\r\n        uint256 energyPrice\r\n    );\r\n\r\n    /// @param _PtoPAddress address of parent contract deploying this contract\r\n    constructor(address _PtoPAddress) public {\r\n        PtoPAddress = _PtoPAddress;\r\n        // create PtoP contract from parent contract address\r\n        PtoPContract = PtoP(_PtoPAddress);\r\n    }\r\n\r\n    function checkBatteryEnergy() external returns (bool) {\r\n        uint256 batteryID;\r\n        uint256 totalEnergyPurchase;\r\n        for (uint256 i = 0; i < batchProcess; i++) {\r\n            batteryID = PtoPContract.batteryMapping(batteryIDCounter);\r\n            totalEnergyPurchase += executeBatteryTransaction(batteryID);\r\n            batteryIDCounter += 1;\r\n            if (batteryIDCounter == PtoPContract.numBatteries()) {\r\n                batteryIDCounter = 0;\r\n                emit LogBatteryCheckCompleted();\r\n                return true;\r\n            }\r\n        }\r\n        return false;\r\n    }\r\n\r\n    function transactEnergy(\r\n        uint256 _batteryID,\r\n        uint256 _capacity,\r\n        uint256 _currentFilled,\r\n        bytes32 _serialNumber,\r\n        uint256 _chargeRate,\r\n        uint256 _energyPrice,\r\n        bool _chargeBattery\r\n    ) private returns (uint256 calculateEnergyToTransact) {\r\n        // convert seconds to hours\r\n        uint256 purchaseIntervalHours = purchaseInterval.div(3600);\r\n        // how much energy is available in battery\r\n        uint256 emptyCapacity = _capacity - _currentFilled;\r\n\r\n        // if decision is to charge battery\r\n        if (_chargeBattery == true) {\r\n            // to add energy to battery, it must have available capacity\r\n            require(\r\n                emptyCapacity > 0,\r\n                \"Battery should have remaining capacity in order to charge\"\r\n            );\r\n            // charge rate * time interval gives total energy amount to be added\r\n            // but energy amount cannot exceed empty capacity\r\n            uint256 charge = _chargeRate.mul(purchaseIntervalHours);\r\n            calculateEnergyToTransact = charge.min(emptyCapacity);\r\n            // find remaining investment in fund\r\n            uint256 remainingInvestment = (\r\n                PtoPContract.batteryInvestmentContract()\r\n            ).remainingInvestment();\r\n            // cost = energy amount * energy price\r\n            uint256 costOfEnergyPurchase = calculateEnergyToTransact.mul(\r\n                _energyPrice\r\n            );\r\n            // make sure there is enough investment to cover energy purchase\r\n            if (costOfEnergyPurchase > remainingInvestment) {\r\n                // energy purchase costs at most are the remaining investment\r\n                costOfEnergyPurchase = remainingInvestment;\r\n                // back calculate the energy based on the max eth available\r\n                calculateEnergyToTransact = remainingInvestment.div(\r\n                    _energyPrice\r\n                );\r\n            }\r\n            // purchase energy\r\n            buyEnergy(_batteryID, calculateEnergyToTransact, _energyPrice);\r\n            emit LogEnergyPurchased(\r\n                _serialNumber,\r\n                calculateEnergyToTransact,\r\n                _energyPrice\r\n            );\r\n        } else {\r\n            calculateEnergyToTransact = Math.min(\r\n                _chargeRate.mul(purchaseIntervalHours),\r\n                _currentFilled\r\n            );\r\n            sellEnergy(_batteryID, calculateEnergyToTransact, _energyPrice);\r\n            emit LogEnergySold(\r\n                _serialNumber,\r\n                calculateEnergyToTransact,\r\n                _energyPrice\r\n            );\r\n        }\r\n    }\r\n\r\n    function buyEnergy(\r\n        uint256 _batteryID,\r\n        uint256 _energyAmountToPurchase,\r\n        uint256 _energyPrice\r\n    ) private returns (bool) {\r\n        uint256 oldRemainingInvestment = PtoPContract\r\n            .batteryInvestmentContract()\r\n            .remainingInvestment();\r\n        uint256 newRemainingInvestment = oldRemainingInvestment.sub(\r\n            _energyAmountToPurchase.mul(_energyPrice)\r\n        );\r\n\r\n        require(\r\n            newRemainingInvestment >= 0,\r\n            \"Not enough money to make this purchase\"\r\n        );\r\n        if (\r\n            (PtoPContract.batteryInvestmentContract())\r\n                .updateRemainingInvestment(newRemainingInvestment)\r\n        ) {\r\n            PtoPContract.chargeBattery(_batteryID, -_energyAmountToPurchase);\r\n            return true;\r\n        }\r\n        return false;\r\n    }\r\n\r\n    function sellEnergy(\r\n        uint256 _batteryID,\r\n        uint256 _energyAmountToSell,\r\n        uint256 _energyPrice\r\n    ) private returns (bool) {\r\n        uint256 oldRemainingInvestment = PtoPContract\r\n            .batteryInvestmentContract()\r\n            .remainingInvestment();\r\n        uint256 newRemainingInvestment = oldRemainingInvestment.add(\r\n            _energyAmountToSell.mul(_energyPrice)\r\n        );\r\n        if (\r\n            (PtoPContract.batteryInvestmentContract())\r\n                .updateRemainingInvestment(newRemainingInvestment)\r\n        ) {\r\n            PtoPContract.chargeBattery(_batteryID, _energyAmountToSell);\r\n            return true;\r\n        }\r\n        return false;\r\n    }\r\n\r\n    function executeBatteryTransaction(\r\n        uint256 _batteryID\r\n    ) private returns (uint256) {\r\n        uint256 energyAmountToTransact;\r\n        // retrieve current price of energy\r\n        uint256 energyPrice = getRealTimeEnergyPrice();\r\n        emit LogBatteryCheck(_batteryID);\r\n        // retrieve relevant battery info for specific battery based on ID\r\n        (\r\n            uint256 capacity,\r\n            uint256 currentFilled,\r\n            bytes32 serialNumber,\r\n            uint256 priceThreshold,\r\n            uint256 chargeRate,\r\n            bool isActive,\r\n            uint256 mapIndex\r\n        ) = PtoPContract.getRelevantBatteryInfo(_batteryID);\r\n\r\n        require(isActive == true, \"Battery should be active\");\r\n\r\n        bool chargeBattery = energyDecisionAlgorithm(\r\n            priceThreshold,\r\n            energyPrice\r\n        );\r\n\r\n        if (chargeBattery == true) {\r\n            // require remaining investment to be valid to purchase energy\r\n            require(\r\n                (PtoPContract.batteryInvestmentContract())\r\n                    .remainingInvestment() > 0\r\n            );\r\n        }\r\n        // buy or sell energy, update battery status\r\n        energyAmountToTransact = transactEnergy(\r\n            _batteryID,\r\n            capacity,\r\n            currentFilled,\r\n            serialNumber,\r\n            chargeRate,\r\n            energyPrice,\r\n            chargeBattery\r\n        );\r\n        return energyAmountToTransact;\r\n    }\r\n\r\n    function getRealTimeEnergyPrice()\r\n        private\r\n        pure\r\n        returns (uint256 realTimePrice)\r\n    {\r\n        realTimePrice = 5000;\r\n    }\r\n\r\n    /// make a decision on whether to buy or sell energy\r\n    /// true to buy energy\r\n    /// false to sell energy\r\n    function energyDecisionAlgorithm(\r\n        uint256 _priceThreshold,\r\n        uint256 _energyPrice\r\n    ) private pure returns (bool) {\r\n        // for now, simple algo. If current price is less than threshold, buy\r\n        if (_priceThreshold > _energyPrice) {\r\n            return true;\r\n        } else {\r\n            return false;\r\n        }\r\n    }\r\n}\r\n",
  "sourcePath": "/mnt/c/Users/Owner/Documents/energytrading - storage/my-app/contracts/BatteryEnergy.sol",
  "compiler": {
    "name": "solc",
    "version": "0.5.1+commit.c8a2cb62.Emscripten.clang"
  },
  "schemaVersion": "3.4.16",
  "updatedAt": "2025-08-30T12:54:01.154Z",
  "networkType": "ethereum",
  "devdoc": {
    "methods": {
      "constructor": {
        "params": {
          "_PtoPAddress": "address of parent contract deploying this contract"
        }
      }
    }
  },
  "userdoc": {
    "methods": {}
  }
}