{
  "contractName": "PtoP",
  "abi": [
    {
      "constant": true,
      "inputs": [],
      "name": "numAdmins",
      "outputs": [
        {
          "name": "",
          "type": "uint256"
        }
      ],
      "payable": false,
      "stateMutability": "view",
      "type": "function"
    },
    {
      "constant": true,
      "inputs": [],
      "name": "batteryEnergyContract",
      "outputs": [
        {
          "name": "",
          "type": "address"
        }
      ],
      "payable": false,
      "stateMutability": "view",
      "type": "function"
    },
    {
      "constant": true,
      "inputs": [
        {
          "name": "",
          "type": "address"
        }
      ],
      "name": "admins",
      "outputs": [
        {
          "name": "",
          "type": "bool"
        }
      ],
      "payable": false,
      "stateMutability": "view",
      "type": "function"
    },
    {
      "constant": true,
      "inputs": [
        {
          "name": "",
          "type": "uint256"
        }
      ],
      "name": "batteries",
      "outputs": [
        {
          "name": "capacity",
          "type": "uint256"
        },
        {
          "name": "currentFilled",
          "type": "uint256"
        },
        {
          "name": "dateAdded",
          "type": "uint256"
        },
        {
          "name": "cost",
          "type": "uint256"
        },
        {
          "name": "serialNumber",
          "type": "bytes32"
        },
        {
          "name": "priceThreshold",
          "type": "uint256"
        },
        {
          "name": "chargeRate",
          "type": "uint256"
        },
        {
          "name": "isActive",
          "type": "bool"
        },
        {
          "name": "mapIndex",
          "type": "uint256"
        }
      ],
      "payable": false,
      "stateMutability": "view",
      "type": "function"
    },
    {
      "constant": true,
      "inputs": [
        {
          "name": "",
          "type": "uint256"
        }
      ],
      "name": "batteryMapping",
      "outputs": [
        {
          "name": "",
          "type": "uint256"
        }
      ],
      "payable": false,
      "stateMutability": "view",
      "type": "function"
    },
    {
      "constant": true,
      "inputs": [],
      "name": "batteryInvestmentContract",
      "outputs": [
        {
          "name": "",
          "type": "address"
        }
      ],
      "payable": false,
      "stateMutability": "view",
      "type": "function"
    },
    {
      "constant": true,
      "inputs": [
        {
          "name": "",
          "type": "uint256"
        }
      ],
      "name": "decommissionedBatteries",
      "outputs": [
        {
          "name": "capacity",
          "type": "uint256"
        },
        {
          "name": "currentFilled",
          "type": "uint256"
        },
        {
          "name": "dateAdded",
          "type": "uint256"
        },
        {
          "name": "cost",
          "type": "uint256"
        },
        {
          "name": "serialNumber",
          "type": "bytes32"
        },
        {
          "name": "priceThreshold",
          "type": "uint256"
        },
        {
          "name": "chargeRate",
          "type": "uint256"
        },
        {
          "name": "isActive",
          "type": "bool"
        },
        {
          "name": "mapIndex",
          "type": "uint256"
        }
      ],
      "payable": false,
      "stateMutability": "view",
      "type": "function"
    },
    {
      "constant": true,
      "inputs": [],
      "name": "numBatteries",
      "outputs": [
        {
          "name": "",
          "type": "uint256"
        }
      ],
      "payable": false,
      "stateMutability": "view",
      "type": "function"
    },
    {
      "constant": true,
      "inputs": [],
      "name": "PtoPAddress",
      "outputs": [
        {
          "name": "",
          "type": "address"
        }
      ],
      "payable": false,
      "stateMutability": "view",
      "type": "function"
    },
    {
      "constant": true,
      "inputs": [
        {
          "name": "",
          "type": "uint256"
        }
      ],
      "name": "adminsList",
      "outputs": [
        {
          "name": "",
          "type": "address"
        }
      ],
      "payable": false,
      "stateMutability": "view",
      "type": "function"
    },
    {
      "constant": false,
      "inputs": [],
      "name": "renounce_ownership",
      "outputs": [],
      "payable": false,
      "stateMutability": "nonpayable",
      "type": "function"
    },
    {
      "constant": true,
      "inputs": [],
      "name": "Owner",
      "outputs": [
        {
          "name": "",
          "type": "address"
        }
      ],
      "payable": false,
      "stateMutability": "view",
      "type": "function"
    },
    {
      "constant": true,
      "inputs": [],
      "name": "batteryEnergyAddress",
      "outputs": [
        {
          "name": "",
          "type": "address"
        }
      ],
      "payable": false,
      "stateMutability": "view",
      "type": "function"
    },
    {
      "constant": true,
      "inputs": [],
      "name": "batteryInvestmentAddress",
      "outputs": [
        {
          "name": "",
          "type": "address"
        }
      ],
      "payable": false,
      "stateMutability": "view",
      "type": "function"
    },
    {
      "constant": false,
      "inputs": [
        {
          "name": "presentowner",
          "type": "address"
        }
      ],
      "name": "transfer_ownership",
      "outputs": [],
      "payable": false,
      "stateMutability": "nonpayable",
      "type": "function"
    },
    {
      "inputs": [],
      "payable": false,
      "stateMutability": "nonpayable",
      "type": "constructor"
    },
    {
      "anonymous": false,
      "inputs": [
        {
          "indexed": false,
          "name": "investorAddress",
          "type": "address"
        },
        {
          "indexed": false,
          "name": "investmentAmount",
          "type": "uint256"
        }
      ],
      "name": "LogNewInvestment",
      "type": "event"
    },
    {
      "anonymous": false,
      "inputs": [
        {
          "indexed": false,
          "name": "investorAddress",
          "type": "address"
        },
        {
          "indexed": false,
          "name": "withdrawalAmount",
          "type": "uint256"
        }
      ],
      "name": "LogWithdrawalMade",
      "type": "event"
    },
    {
      "anonymous": false,
      "inputs": [
        {
          "indexed": false,
          "name": "adminAddress",
          "type": "address"
        },
        {
          "indexed": false,
          "name": "status",
          "type": "bool"
        }
      ],
      "name": "LogChangeAdmin",
      "type": "event"
    },
    {
      "anonymous": false,
      "inputs": [
        {
          "indexed": false,
          "name": "serialNumber",
          "type": "bytes32"
        },
        {
          "indexed": false,
          "name": "newStatus",
          "type": "bool"
        }
      ],
      "name": "LogBatteryActive",
      "type": "event"
    },
    {
      "anonymous": false,
      "inputs": [
        {
          "indexed": false,
          "name": "newThreshold",
          "type": "uint256"
        }
      ],
      "name": "LogBatteryThresholdChanged",
      "type": "event"
    },
    {
      "anonymous": false,
      "inputs": [
        {
          "indexed": true,
          "name": "pastowner",
          "type": "address"
        },
        {
          "indexed": true,
          "name": "presentowner",
          "type": "address"
        }
      ],
      "name": "transfered_ownership",
      "type": "event"
    },
    {
      "constant": true,
      "inputs": [
        {
          "name": "adminAddress",
          "type": "address"
        }
      ],
      "name": "isAdmin",
      "outputs": [
        {
          "name": "",
          "type": "bool"
        }
      ],
      "payable": false,
      "stateMutability": "view",
      "type": "function"
    },
    {
      "constant": true,
      "inputs": [
        {
          "name": "index",
          "type": "uint256"
        }
      ],
      "name": "getBattery",
      "outputs": [
        {
          "name": "capacity",
          "type": "uint256"
        },
        {
          "name": "currentFilled",
          "type": "uint256"
        },
        {
          "name": "dateAdded",
          "type": "uint256"
        },
        {
          "name": "cost",
          "type": "uint256"
        },
        {
          "name": "serialNumber",
          "type": "bytes32"
        },
        {
          "name": "priceThreshold",
          "type": "uint256"
        },
        {
          "name": "chargeRate",
          "type": "uint256"
        },
        {
          "name": "isActive",
          "type": "bool"
        },
        {
          "name": "mapIndex",
          "type": "uint256"
        }
      ],
      "payable": false,
      "stateMutability": "view",
      "type": "function"
    },
    {
      "constant": true,
      "inputs": [],
      "name": "getBatteryMapping",
      "outputs": [
        {
          "name": "",
          "type": "uint256[]"
        }
      ],
      "payable": false,
      "stateMutability": "view",
      "type": "function"
    },
    {
      "constant": true,
      "inputs": [],
      "name": "getAdmin",
      "outputs": [
        {
          "name": "",
          "type": "address[]"
        }
      ],
      "payable": false,
      "stateMutability": "view",
      "type": "function"
    },
    {
      "constant": false,
      "inputs": [],
      "name": "getUser",
      "outputs": [
        {
          "name": "sender",
          "type": "address"
        }
      ],
      "payable": false,
      "stateMutability": "nonpayable",
      "type": "function"
    },
    {
      "constant": false,
      "inputs": [
        {
          "name": "_capacity",
          "type": "uint256"
        },
        {
          "name": "_currentFilled",
          "type": "uint256"
        },
        {
          "name": "_cost",
          "type": "uint256"
        },
        {
          "name": "_serialNumber",
          "type": "bytes32"
        },
        {
          "name": "_priceThreshold",
          "type": "uint256"
        },
        {
          "name": "_chargeRate",
          "type": "uint256"
        }
      ],
      "name": "addBattery",
      "outputs": [
        {
          "name": "response",
          "type": "uint256"
        }
      ],
      "payable": false,
      "stateMutability": "nonpayable",
      "type": "function"
    },
    {
      "constant": false,
      "inputs": [
        {
          "name": "_batteryID",
          "type": "uint256"
        },
        {
          "name": "_chargeAmount",
          "type": "uint256"
        }
      ],
      "name": "chargeBattery",
      "outputs": [
        {
          "name": "",
          "type": "uint256"
        }
      ],
      "payable": false,
      "stateMutability": "nonpayable",
      "type": "function"
    },
    {
      "constant": false,
      "inputs": [
        {
          "name": "_batteryID",
          "type": "uint256"
        },
        {
          "name": "_newThreshold",
          "type": "uint256"
        }
      ],
      "name": "changeBatteryThreshold",
      "outputs": [],
      "payable": false,
      "stateMutability": "nonpayable",
      "type": "function"
    },
    {
      "constant": false,
      "inputs": [
        {
          "name": "_batteryID",
          "type": "uint256"
        }
      ],
      "name": "decommissionBattery",
      "outputs": [
        {
          "name": "",
          "type": "uint256"
        }
      ],
      "payable": false,
      "stateMutability": "nonpayable",
      "type": "function"
    },
    {
      "constant": true,
      "inputs": [
        {
          "name": "_batteryID",
          "type": "uint256"
        }
      ],
      "name": "getRelevantBatteryInfo",
      "outputs": [
        {
          "name": "",
          "type": "uint256"
        },
        {
          "name": "",
          "type": "uint256"
        },
        {
          "name": "",
          "type": "bytes32"
        },
        {
          "name": "",
          "type": "uint256"
        },
        {
          "name": "",
          "type": "uint256"
        },
        {
          "name": "",
          "type": "bool"
        },
        {
          "name": "",
          "type": "uint256"
        }
      ],
      "payable": false,
      "stateMutability": "view",
      "type": "function"
    },
    {
      "constant": true,
      "inputs": [
        {
          "name": "_batteryID",
          "type": "uint256"
        }
      ],
      "name": "getBatteryCapacityRemaining",
      "outputs": [
        {
          "name": "remaining",
          "type": "uint256"
        }
      ],
      "payable": false,
      "stateMutability": "view",
      "type": "function"
    },
    {
      "constant": true,
      "inputs": [
        {
          "name": "_batteryID",
          "type": "uint256"
        }
      ],
      "name": "getBatteryChargeRate",
      "outputs": [
        {
          "name": "",
          "type": "uint256"
        }
      ],
      "payable": false,
      "stateMutability": "view",
      "type": "function"
    },
    {
      "constant": true,
      "inputs": [
        {
          "name": "_batteryID",
          "type": "uint256"
        }
      ],
      "name": "getBatteryMapIndex",
      "outputs": [
        {
          "name": "",
          "type": "uint256"
        }
      ],
      "payable": false,
      "stateMutability": "view",
      "type": "function"
    },
    {
      "constant": false,
      "inputs": [],
      "name": "toggleContractActive",
      "outputs": [],
      "payable": false,
      "stateMutability": "nonpayable",
      "type": "function"
    },
    {
      "constant": false,
      "inputs": [
        {
          "name": "_newAdminAddress",
          "type": "address"
        },
        {
          "name": "_adminStatus",
          "type": "bool"
        }
      ],
      "name": "setAdmin",
      "outputs": [
        {
          "name": "",
          "type": "uint256"
        }
      ],
      "payable": false,
      "stateMutability": "nonpayable",
      "type": "function"
    }
  ],
  "bytecode": "0x60806040526000600460146101000a81548160ff021916908315150217905550600060085560006009553480156200003657600080fd5b50336000806101000a81548173ffffffffffffffffffffffffffffffffffffffff021916908373ffffffffffffffffffffffffffffffffffffffff1602179055506000809054906101000a900473ffffffffffffffffffffffffffffffffffffffff1673ffffffffffffffffffffffffffffffffffffffff16600073ffffffffffffffffffffffffffffffffffffffff167fa2c1143a2ba0641a3588a799a6b504510bd4612f6fde43139ea87c5a1d7c8bda60405160405180910390a36200010f336001620003ae640100000000026401000000009004565b5060006001905030600560006101000a81548173ffffffffffffffffffffffffffffffffffffffff021916908373ffffffffffffffffffffffffffffffffffffffff160217905550600560009054906101000a900473ffffffffffffffffffffffffffffffffffffffff168162000185620004b2565b808373ffffffffffffffffffffffffffffffffffffffff1673ffffffffffffffffffffffffffffffffffffffff16815260200182815260200192505050604051809103906000f080158015620001df573d6000803e3d6000fd5b50600360006101000a81548173ffffffffffffffffffffffffffffffffffffffff021916908373ffffffffffffffffffffffffffffffffffffffff160217905550600360009054906101000a900473ffffffffffffffffffffffffffffffffffffffff16600660006101000a81548173ffffffffffffffffffffffffffffffffffffffff021916908373ffffffffffffffffffffffffffffffffffffffff160217905550600560009054906101000a900473ffffffffffffffffffffffffffffffffffffffff16620002b0620004c3565b808273ffffffffffffffffffffffffffffffffffffffff1673ffffffffffffffffffffffffffffffffffffffff168152602001915050604051809103906000f08015801562000303573d6000803e3d6000fd5b50600460006101000a81548173ffffffffffffffffffffffffffffffffffffffff021916908373ffffffffffffffffffffffffffffffffffffffff160217905550600460009054906101000a900473ffffffffffffffffffffffffffffffffffffffff16600760006101000a81548173ffffffffffffffffffffffffffffffffffffffff021916908373ffffffffffffffffffffffffffffffffffffffff16021790555050620004d4565b600081600b60008573ffffffffffffffffffffffffffffffffffffffff1673ffffffffffffffffffffffffffffffffffffffff16815260200190815260200160002060006101000a81548160ff021916908315150217905550600c8390806001815401808255809150509060018203906000526020600020016000909192909190916101000a81548173ffffffffffffffffffffffffffffffffffffffff021916908373ffffffffffffffffffffffffffffffffffffffff160217905550506001151582151514156200049357600960008154809291906001019190505550620004a7565b600960008154809291906001900391905055505b600954905092915050565b604051611dae806200315e83390190565b6040516117e08062004f0c83390190565b612c7a80620004e46000396000f3fe60806040526004361061017a576000357c0100000000000000000000000000000000000000000000000000000000900480630efd49891461017f5780631385d24c146101aa57806313c1d396146101c157806324d7806c146102185780633dcd20f414610281578063429b62e5146102fe578063460fafbc146103675780634b0bddd2146103c05780635f392c901461043157806364e98072146104bc57806369777fce1461050b5780636e9960c31461056257806370304e33146105ce5780637ab9be18146106595780637f4912c514610684578063807e7c04146106d357806381da62c71461075e578063832880e7146107b5578063839f81bd1461080c578063a27853521461088d578063a4705294146108f9578063a62e4a4314610974578063b15e13ee146109c3578063b4a99a4e146109da578063c312fe1a14610a31578063c7177dad14610a76578063dc4d0fd814610acd578063e58260ae14610b24578063f0350c0414610b73578063fc7c6a1214610bc4575b600080fd5b34801561018b57600080fd5b50610194610c13565b6040518082815260200191505060405180910390f35b3480156101b657600080fd5b506101bf610c19565b005b3480156101cd57600080fd5b506101d6610e17565b604051808273ffffffffffffffffffffffffffffffffffffffff1673ffffffffffffffffffffffffffffffffffffffff16815260200191505060405180910390f35b34801561022457600080fd5b506102676004803603602081101561023b57600080fd5b81019080803573ffffffffffffffffffffffffffffffffffffffff169060200190929190505050610e3d565b604051808215151515815260200191505060405180910390f35b34801561028d57600080fd5b506102ba600480360360208110156102a457600080fd5b810190808035906020019092919050505061101a565b604051808881526020018781526020018681526020018581526020018481526020018315151515815260200182815260200197505050505050505060405180910390f35b34801561030a57600080fd5b5061034d6004803603602081101561032157600080fd5b81019080803573ffffffffffffffffffffffffffffffffffffffff169060200190929190505050611132565b604051808215151515815260200191505060405180910390f35b34801561037357600080fd5b506103aa6004803603604081101561038a57600080fd5b810190808035906020019092919080359060200190929190505050611152565b6040518082815260200191505060405180910390f35b3480156103cc57600080fd5b5061041b600480360360408110156103e357600080fd5b81019080803573ffffffffffffffffffffffffffffffffffffffff1690602001909291908035151590602001909291905050506113fe565b6040518082815260200191505060405180910390f35b34801561043d57600080fd5b5061046a6004803603602081101561045457600080fd5b8101908080359060200190929190505050611500565b604051808a815260200189815260200188815260200187815260200186815260200185815260200184815260200183151515158152602001828152602001995050505050505050505060405180910390f35b3480156104c857600080fd5b506104f5600480360360208110156104df57600080fd5b810190808035906020019092919050505061156a565b6040518082815260200191505060405180910390f35b34801561051757600080fd5b5061052061158d565b604051808273ffffffffffffffffffffffffffffffffffffffff1673ffffffffffffffffffffffffffffffffffffffff16815260200191505060405180910390f35b34801561056e57600080fd5b506105776115b3565b6040518080602001828103825283818151815260200191508051906020019060200280838360005b838110156105ba57808201518184015260208101905061059f565b505050509050019250505060405180910390f35b3480156105da57600080fd5b50610607600480360360208110156105f157600080fd5b8101908080359060200190929190505050611641565b604051808a815260200189815260200188815260200187815260200186815260200185815260200184815260200183151515158152602001828152602001995050505050505050505060405180910390f35b34801561066557600080fd5b5061066e6116ab565b6040518082815260200191505060405180910390f35b34801561069057600080fd5b506106bd600480360360208110156106a757600080fd5b81019080803590602001909291905050506116b1565b6040518082815260200191505060405180910390f35b3480156106df57600080fd5b5061070c600480360360208110156106f657600080fd5b81019080803590602001909291905050506116db565b604051808a815260200189815260200188815260200187815260200186815260200185815260200184815260200183151515158152602001828152602001995050505050505050505060405180910390f35b34801561076a57600080fd5b506107736117d6565b604051808273ffffffffffffffffffffffffffffffffffffffff1673ffffffffffffffffffffffffffffffffffffffff16815260200191505060405180910390f35b3480156107c157600080fd5b506107ca6117fc565b604051808273ffffffffffffffffffffffffffffffffffffffff1673ffffffffffffffffffffffffffffffffffffffff16815260200191505060405180910390f35b34801561081857600080fd5b50610877600480360360c081101561082f57600080fd5b81019080803590602001909291908035906020019092919080359060200190929190803590602001909291908035906020019092919080359060200190929190505050611804565b6040518082815260200191505060405180910390f35b34801561089957600080fd5b506108a2611e5a565b6040518080602001828103825283818151815260200191508051906020019060200280838360005b838110156108e55780820151818401526020810190506108ca565b505050509050019250505060405180910390f35b34801561090557600080fd5b506109326004803603602081101561091c57600080fd5b8101908080359060200190929190505050611eb2565b604051808273ffffffffffffffffffffffffffffffffffffffff1673ffffffffffffffffffffffffffffffffffffffff16815260200191505060405180910390f35b34801561098057600080fd5b506109ad6004803603602081101561099757600080fd5b8101908080359060200190929190505050611ef0565b6040518082815260200191505060405180910390f35b3480156109cf57600080fd5b506109d8612324565b005b3480156109e657600080fd5b506109ef6124cd565b604051808273ffffffffffffffffffffffffffffffffffffffff1673ffffffffffffffffffffffffffffffffffffffff16815260200191505060405180910390f35b348015610a3d57600080fd5b50610a7460048036036040811015610a5457600080fd5b8101908080359060200190929190803590602001909291905050506124f6565b005b348015610a8257600080fd5b50610a8b61274f565b604051808273ffffffffffffffffffffffffffffffffffffffff1673ffffffffffffffffffffffffffffffffffffffff16815260200191505060405180910390f35b348015610ad957600080fd5b50610ae2612775565b604051808273ffffffffffffffffffffffffffffffffffffffff1673ffffffffffffffffffffffffffffffffffffffff16815260200191505060405180910390f35b348015610b3057600080fd5b50610b5d60048036036020811015610b4757600080fd5b810190808035906020019092919050505061279b565b6040518082815260200191505060405180910390f35b348015610b7f57600080fd5b50610bc260048036036020811015610b9657600080fd5b81019080803573ffffffffffffffffffffffffffffffffffffffff1690602001909291905050506127c5565b005b348015610bd057600080fd5b50610bfd60048036036020811015610be757600080fd5b81019080803590602001909291905050506128bb565b6040518082815260200191505060405180910390f35b60095481565b3360011515600b60008373ffffffffffffffffffffffffffffffffffffffff1673ffffffffffffffffffffffffffffffffffffffff16815260200190815260200160002060009054906101000a900460ff1615151480610cc65750600560009054906101000a900473ffffffffffffffffffffffffffffffffffffffff1673ffffffffffffffffffffffffffffffffffffffff163373ffffffffffffffffffffffffffffffffffffffff16145b80610d1e5750600660009054906101000a900473ffffffffffffffffffffffffffffffffffffffff1673ffffffffffffffffffffffffffffffffffffffff163373ffffffffffffffffffffffffffffffffffffffff16145b80610d765750600760009054906101000a900473ffffffffffffffffffffffffffffffffffffffff1673ffffffffffffffffffffffffffffffffffffffff163373ffffffffffffffffffffffffffffffffffffffff16145b1515610dea576040517f08c379a00000000000000000000000000000000000000000000000000000000081526004018080602001828103825260118152602001807f6e6f7420612076616c69642041646d696e00000000000000000000000000000081525060200191505060405180910390fd5b600460149054906101000a900460ff1615600460146101000a81548160ff02191690831515021790555050565b600460009054906101000a900473ffffffffffffffffffffffffffffffffffffffff1681565b60008160011515600b60008373ffffffffffffffffffffffffffffffffffffffff1673ffffffffffffffffffffffffffffffffffffffff16815260200190815260200160002060009054906101000a900460ff1615151480610eec5750600560009054906101000a900473ffffffffffffffffffffffffffffffffffffffff1673ffffffffffffffffffffffffffffffffffffffff163373ffffffffffffffffffffffffffffffffffffffff16145b80610f445750600660009054906101000a900473ffffffffffffffffffffffffffffffffffffffff1673ffffffffffffffffffffffffffffffffffffffff163373ffffffffffffffffffffffffffffffffffffffff16145b80610f9c5750600760009054906101000a900473ffffffffffffffffffffffffffffffffffffffff1673ffffffffffffffffffffffffffffffffffffffff163373ffffffffffffffffffffffffffffffffffffffff16145b1515611010576040517f08c379a00000000000000000000000000000000000000000000000000000000081526004018080602001828103825260118152602001807f6e6f7420612076616c69642041646d696e00000000000000000000000000000081525060200191505060405180910390fd5b6001915050919050565b600080600080600080600060018881548110151561103457fe5b90600052602060002090600902016000015460018981548110151561105557fe5b90600052602060002090600902016001015460018a81548110151561107657fe5b90600052602060002090600902016004015460018b81548110151561109757fe5b90600052602060002090600902016005015460018c8154811015156110b857fe5b90600052602060002090600902016006015460018d8154811015156110d957fe5b906000526020600020906009020160070160009054906101000a900460ff1660018e81548110151561110757fe5b9060005260206000209060090201600801549650965096509650965096509650919395979092949650565b600b6020528060005260406000206000915054906101000a900460ff1681565b60003360011515600b60008373ffffffffffffffffffffffffffffffffffffffff1673ffffffffffffffffffffffffffffffffffffffff16815260200190815260200160002060009054906101000a900460ff16151514806112015750600560009054906101000a900473ffffffffffffffffffffffffffffffffffffffff1673ffffffffffffffffffffffffffffffffffffffff163373ffffffffffffffffffffffffffffffffffffffff16145b806112595750600660009054906101000a900473ffffffffffffffffffffffffffffffffffffffff1673ffffffffffffffffffffffffffffffffffffffff163373ffffffffffffffffffffffffffffffffffffffff16145b806112b15750600760009054906101000a900473ffffffffffffffffffffffffffffffffffffffff1673ffffffffffffffffffffffffffffffffffffffff163373ffffffffffffffffffffffffffffffffffffffff16145b1515611325576040517f08c379a00000000000000000000000000000000000000000000000000000000081526004018080602001828103825260118152602001807f6e6f7420612076616c69642041646d696e00000000000000000000000000000081525060200191505060405180910390fd5b600460149054906101000a900460ff1615156113f75760018481548110151561134a57fe5b9060005260206000209060090201600001548360018681548110151561136c57fe5b906000526020600020906009020160010154011115151561138c57600080fd5b8260018581548110151561139c57fe5b906000526020600020906009020160010154016001858154811015156113be57fe5b9060005260206000209060090201600101819055506001848154811015156113e257fe5b90600052602060002090600902016001015491505b5092915050565b600081600b60008573ffffffffffffffffffffffffffffffffffffffff1673ffffffffffffffffffffffffffffffffffffffff16815260200190815260200160002060006101000a81548160ff021916908315150217905550600c8390806001815401808255809150509060018203906000526020600020016000909192909190916101000a81548173ffffffffffffffffffffffffffffffffffffffff021916908373ffffffffffffffffffffffffffffffffffffffff160217905550506001151582151514156114e1576009600081548092919060010191905055506114f5565b600960008154809291906001900391905055505b600954905092915050565b60018181548110151561150f57fe5b90600052602060002090600902016000915090508060000154908060010154908060020154908060030154908060040154908060050154908060060154908060070160009054906101000a900460ff16908060080154905089565b600a8181548110151561157957fe5b906000526020600020016000915090505481565b600360009054906101000a900473ffffffffffffffffffffffffffffffffffffffff1681565b6060600c80548060200260200160405190810160405280929190818152602001828054801561163757602002820191906000526020600020905b8160009054906101000a900473ffffffffffffffffffffffffffffffffffffffff1673ffffffffffffffffffffffffffffffffffffffff16815260200190600101908083116115ed575b5050505050905090565b60028181548110151561165057fe5b90600052602060002090600902016000915090508060000154908060010154908060020154908060030154908060040154908060050154908060060154908060070160009054906101000a900460ff16908060080154905089565b60085481565b60006001828154811015156116c257fe5b9060005260206000209060090201600801549050919050565b60008060008060008060008060006116f1612bab565b60018b81548110151561170057fe5b90600052602060002090600902016101206040519081016040529081600082015481526020016001820154815260200160028201548152602001600382015481526020016004820154815260200160058201548152602001600682015481526020016007820160009054906101000a900460ff161515151581526020016008820154815250509050806000015181602001518260400151836060015184608001518560a001518660c001518760e00151886101000151995099509950995099509950995099509950509193959799909294969850565b600560009054906101000a900473ffffffffffffffffffffffffffffffffffffffff1681565b600033905090565b6000868686856000600360009054906101000a900473ffffffffffffffffffffffffffffffffffffffff1673ffffffffffffffffffffffffffffffffffffffff1663af5cfae86040518163ffffffff167c010000000000000000000000000000000000000000000000000000000002815260040160206040518083038186803b15801561189057600080fd5b505afa1580156118a4573d6000803e3d6000fd5b505050506040513d60208110156118ba57600080fd5b8101908080519060200190929190505050905060006118e2858761291b90919063ffffffff16565b1015151561197e576040517f08c379a00000000000000000000000000000000000000000000000000000000081526004018080602001828103825260228152602001807f4361706163697479206d7573742065786365656420616d6f756e742066696c6c81526020017f656400000000000000000000000000000000000000000000000000000000000081525060400191505060405180910390fd5b6000611993848361291b90919063ffffffff16565b10151515611a2f576040517f08c379a00000000000000000000000000000000000000000000000000000000081526004018080602001828103825260218152602001807f4e6f7420656e6f75676820696e766573746d656e7420746f207075726368617381526020017f650000000000000000000000000000000000000000000000000000000000000081525060400191505060405180910390fd5b60008210151515611ace576040517f08c379a00000000000000000000000000000000000000000000000000000000081526004018080602001828103825260218152602001807f4d757374206861766520612076616c6964207072696365207468726573686f6c81526020017f640000000000000000000000000000000000000000000000000000000000000081525060400191505060405180910390fd5b600460149054906101000a900460ff161515611e4b5760006001805490509050611af6612bab565b8d8160000181815250508c8160200181815250508b8160600181815250508a816080018181525050898160a0018181525050888160c001818152505060018160e0019015159081151581525050818161010001818152505060018190806001815401808255809150509060018203906000526020600020906009020160009091929091909150600082015181600001556020820151816001015560408201518160020155606082015181600301556080820151816004015560a0820151816005015560c0820151816006015560e08201518160070160006101000a81548160ff02191690831515021790555061010082015181600801555050506000600360009054906101000a900473ffffffffffffffffffffffffffffffffffffffff1673ffffffffffffffffffffffffffffffffffffffff1663af5cfae86040518163ffffffff167c010000000000000000000000000000000000000000000000000000000002815260040160206040518083038186803b158015611c7657600080fd5b505afa158015611c8a573d6000803e3d6000fd5b505050506040513d6020811015611ca057600080fd5b81019080805190602001909291905050509050611cc9600160085461296590919063ffffffff16565b600881905550600a8390806001815401808255809150509060018203906000526020600020016000909192909190915055506000611d108e8361291b90919063ffffffff16565b9050600360009054906101000a900473ffffffffffffffffffffffffffffffffffffffff1673ffffffffffffffffffffffffffffffffffffffff1663a342766b826040518263ffffffff167c010000000000000000000000000000000000000000000000000000000002815260040180828152602001915050602060405180830381600087803b158015611da357600080fd5b505af1158015611db7573d6000803e3d6000fd5b505050506040513d6020811015611dcd57600080fd5b810190808051906020019092919050505050600184815481101515611dee57fe5b90600052602060002090600902016008015499507f30d85d5a522569ce310aa6c7c0440c91d487f54517033dbdf0842b674f82de078d600160405180838152602001821515151581526020019250505060405180910390a1505050505b50505050509695505050505050565b6060600a805480602002602001604051908101604052809291908181526020018280548015611ea857602002820191906000526020600020905b815481526020019060010190808311611e94575b5050505050905090565b600c81815481101515611ec157fe5b906000526020600020016000915054906101000a900473ffffffffffffffffffffffffffffffffffffffff1681565b6000600460149054906101000a900460ff16151561231f573360011515600b60008373ffffffffffffffffffffffffffffffffffffffff1673ffffffffffffffffffffffffffffffffffffffff16815260200190815260200160002060009054906101000a900460ff1615151480611fb55750600560009054906101000a900473ffffffffffffffffffffffffffffffffffffffff1673ffffffffffffffffffffffffffffffffffffffff163373ffffffffffffffffffffffffffffffffffffffff16145b8061200d5750600660009054906101000a900473ffffffffffffffffffffffffffffffffffffffff1673ffffffffffffffffffffffffffffffffffffffff163373ffffffffffffffffffffffffffffffffffffffff16145b806120655750600760009054906101000a900473ffffffffffffffffffffffffffffffffffffffff1673ffffffffffffffffffffffffffffffffffffffff163373ffffffffffffffffffffffffffffffffffffffff16145b15156120d9576040517f08c379a00000000000000000000000000000000000000000000000000000000081526004018080602001828103825260118152602001807f6e6f7420612076616c69642041646d696e00000000000000000000000000000081525060200191505060405180910390fd5b6001838154811015156120e857fe5b906000526020600020906009020160070160009054906101000a900460ff16151561211257600080fd5b600060018481548110151561212357fe5b906000526020600020906009020160070160006101000a81548160ff021916908315150217905550600060018481548110151561215c57fe5b9060005260206000209060090201600401549050600260018581548110151561218157fe5b906000526020600020906009020190806001815401808255809150509060018203906000526020600020906009020160009091929091909150600082015481600001556001820154816001015560028201548160020155600382015481600301556004820154816004015560058201548160050155600682015481600601556007820160009054906101000a900460ff168160070160006101000a81548160ff0219169083151502179055506008820154816008015550505060018481548110151561224957fe5b90600052602060002090600902016008015460018080805490500381548110151561227057fe5b9060005260206000209060090201600801819055506001808054905003600a8581548110151561229c57fe5b9060005260206000200181905550600a8054809190600190036122bf9190612bfd565b50600860008154809291906001900391905055507f30d85d5a522569ce310aa6c7c0440c91d487f54517033dbdf0842b674f82de0781600060405180838152602001821515151581526020019250505060405180910390a1600854925050505b919050565b6000809054906101000a900473ffffffffffffffffffffffffffffffffffffffff1673ffffffffffffffffffffffffffffffffffffffff163373ffffffffffffffffffffffffffffffffffffffff1614151561240e576040517f08c379a00000000000000000000000000000000000000000000000000000000081526004018080602001828103825260228152602001807f4f6e6c79206f776e65722063616e2063616c6c20746869732066756e6374696f81526020017f6e2e00000000000000000000000000000000000000000000000000000000000081525060400191505060405180910390fd5b600073ffffffffffffffffffffffffffffffffffffffff166000809054906101000a900473ffffffffffffffffffffffffffffffffffffffff1673ffffffffffffffffffffffffffffffffffffffff167fa2c1143a2ba0641a3588a799a6b504510bd4612f6fde43139ea87c5a1d7c8bda60405160405180910390a360008060006101000a81548173ffffffffffffffffffffffffffffffffffffffff021916908373ffffffffffffffffffffffffffffffffffffffff160217905550565b60008060009054906101000a900473ffffffffffffffffffffffffffffffffffffffff16905090565b600460149054906101000a900460ff16151561274b573360011515600b60008373ffffffffffffffffffffffffffffffffffffffff1673ffffffffffffffffffffffffffffffffffffffff16815260200190815260200160002060009054906101000a900460ff16151514806125b95750600560009054906101000a900473ffffffffffffffffffffffffffffffffffffffff1673ffffffffffffffffffffffffffffffffffffffff163373ffffffffffffffffffffffffffffffffffffffff16145b806126115750600660009054906101000a900473ffffffffffffffffffffffffffffffffffffffff1673ffffffffffffffffffffffffffffffffffffffff163373ffffffffffffffffffffffffffffffffffffffff16145b806126695750600760009054906101000a900473ffffffffffffffffffffffffffffffffffffffff1673ffffffffffffffffffffffffffffffffffffffff163373ffffffffffffffffffffffffffffffffffffffff16145b15156126dd576040517f08c379a00000000000000000000000000000000000000000000000000000000081526004018080602001828103825260118152602001807f6e6f7420612076616c69642041646d696e00000000000000000000000000000081525060200191505060405180910390fd5b600082101515156126ed57600080fd5b816001848154811015156126fd57fe5b9060005260206000209060090201600501819055507fa6551cf039439f591ebe17eb5c0e3a1605a7be4c97483192e842e778851f0114826040518082815260200191505060405180910390a1505b5050565b600760009054906101000a900473ffffffffffffffffffffffffffffffffffffffff1681565b600660009054906101000a900473ffffffffffffffffffffffffffffffffffffffff1681565b60006001828154811015156127ac57fe5b9060005260206000209060090201600601549050919050565b6000809054906101000a900473ffffffffffffffffffffffffffffffffffffffff1673ffffffffffffffffffffffffffffffffffffffff163373ffffffffffffffffffffffffffffffffffffffff161415156128af576040517f08c379a00000000000000000000000000000000000000000000000000000000081526004018080602001828103825260228152602001807f4f6e6c79206f776e65722063616e2063616c6c20746869732066756e6374696f81526020017f6e2e00000000000000000000000000000000000000000000000000000000000081525060400191505060405180910390fd5b6128b8816129ef565b50565b60006001828154811015156128cc57fe5b9060005260206000209060090201600101546001838154811015156128ed57fe5b9060005260206000209060090201600001540390506000811115156129155760009050612916565b5b919050565b600061295d83836040805190810160405280601e81526020017f536166654d6174683a207375627472616374696f6e206f766572666c6f770000815250612ae9565b905092915050565b60008082840190508381101515156129e5576040517f08c379a000000000000000000000000000000000000000000000000000000000815260040180806020018281038252601b8152602001807f536166654d6174683a206164646974696f6e206f766572666c6f77000000000081525060200191505060405180910390fd5b8091505092915050565b600073ffffffffffffffffffffffffffffffffffffffff168173ffffffffffffffffffffffffffffffffffffffff1614151515612a2b57600080fd5b8073ffffffffffffffffffffffffffffffffffffffff166000809054906101000a900473ffffffffffffffffffffffffffffffffffffffff1673ffffffffffffffffffffffffffffffffffffffff167fa2c1143a2ba0641a3588a799a6b504510bd4612f6fde43139ea87c5a1d7c8bda60405160405180910390a3806000806101000a81548173ffffffffffffffffffffffffffffffffffffffff021916908373ffffffffffffffffffffffffffffffffffffffff16021790555050565b60008383111582901515612b98576040517f08c379a00000000000000000000000000000000000000000000000000000000081526004018080602001828103825283818151815260200191508051906020019080838360005b83811015612b5d578082015181840152602081019050612b42565b50505050905090810190601f168015612b8a5780820380516001836020036101000a031916815260200191505b509250505060405180910390fd5b5060008385039050809150509392505050565b6101206040519081016040528060008152602001600081526020016000815260200160008152602001600080191681526020016000815260200160008152602001600015158152602001600081525090565b815481835581811115612c2457818360005260206000209182019101612c239190612c29565b5b505050565b612c4b91905b80821115612c47576000816000905550600101612c2f565b5090565b9056fea165627a7a72305820eb4b926cef43b0ae3e09eda05e0e4e177dc8af400b60c4a2b90e1f9db090c0f0002960806040526003600555600060085534801561001a57600080fd5b50604051604080611dae8339810180604052604081101561003a57600080fd5b81019080805190602001909291908051906020019092919050505080600481905550816000806101000a81548173ffffffffffffffffffffffffffffffffffffffff021916908373ffffffffffffffffffffffffffffffffffffffff16021790555081600160006101000a81548173ffffffffffffffffffffffffffffffffffffffff021916908373ffffffffffffffffffffffffffffffffffffffff1602179055506000600660006002811015156100ef57fe5b018190555060006006600160028110151561010657fe5b01819055505050611c928061011c6000396000f3fe608060405260043610610101576000357c01000000000000000000000000000000000000000000000000000000009004806310ea13df146101065780632ccc87271461013157806332f6eca5146101ac578063370a3918146102115780633ccfd60b1461023c57806341dab00a146102465780636bb80d51146102ab57806379ebb6c4146102d65780637ee8b2f81461037f57806381da62c7146103e4578063973a9a821461043b5780639b49969b14610445578063a342766b14610470578063af5cfae8146104c3578063b9c8c449146104ee578063bd68f8f614610553578063c6778b2e146105a2578063efabc74614610611578063f3f437031461063c575b600080fd5b34801561011257600080fd5b5061011b6106a1565b6040518082815260200191505060405180910390f35b34801561013d57600080fd5b5061016a6004803603602081101561015457600080fd5b81019080803590602001909291905050506106a7565b604051808273ffffffffffffffffffffffffffffffffffffffff1673ffffffffffffffffffffffffffffffffffffffff16815260200191505060405180910390f35b3480156101b857600080fd5b506101fb600480360360208110156101cf57600080fd5b81019080803573ffffffffffffffffffffffffffffffffffffffff1690602001909291905050506106e5565b6040518082815260200191505060405180910390f35b34801561021d57600080fd5b5061022661072e565b6040518082815260200191505060405180910390f35b610244610a92565b005b34801561025257600080fd5b506102956004803603602081101561026957600080fd5b81019080803573ffffffffffffffffffffffffffffffffffffffff169060200190929190505050610eb0565b6040518082815260200191505060405180910390f35b3480156102b757600080fd5b506102c0610ec8565b6040518082815260200191505060405180910390f35b3480156102e257600080fd5b5061032f600480360360408110156102f957600080fd5b81019080803573ffffffffffffffffffffffffffffffffffffffff16906020019092919080359060200190929190505050610ece565b604051808473ffffffffffffffffffffffffffffffffffffffff1673ffffffffffffffffffffffffffffffffffffffff168152602001838152602001828152602001935050505060405180910390f35b34801561038b57600080fd5b506103ce600480360360208110156103a257600080fd5b81019080803573ffffffffffffffffffffffffffffffffffffffff169060200190929190505050610f34565b6040518082815260200191505060405180910390f35b3480156103f057600080fd5b506103f9610f7d565b604051808273ffffffffffffffffffffffffffffffffffffffff1673ffffffffffffffffffffffffffffffffffffffff16815260200191505060405180910390f35b610443610fa3565b005b34801561045157600080fd5b5061045a611306565b6040518082815260200191505060405180910390f35b34801561047c57600080fd5b506104a96004803603602081101561049357600080fd5b810190808035906020019092919050505061130c565b604051808215151515815260200191505060405180910390f35b3480156104cf57600080fd5b506104d861142a565b6040518082815260200191505060405180910390f35b3480156104fa57600080fd5b5061053d6004803603602081101561051157600080fd5b81019080803573ffffffffffffffffffffffffffffffffffffffff169060200190929190505050611430565b6040518082815260200191505060405180910390f35b34801561055f57600080fd5b5061058c6004803603602081101561057657600080fd5b810190808035906020019092919050505061184f565b6040518082815260200191505060405180910390f35b3480156105ae57600080fd5b506105fb600480360360408110156105c557600080fd5b81019080803573ffffffffffffffffffffffffffffffffffffffff16906020019092919080359060200190929190505050611869565b6040518082815260200191505060405180910390f35b34801561061d57600080fd5b506106266118d1565b6040518082815260200191505060405180910390f35b34801561064857600080fd5b5061068b6004803603602081101561065f57600080fd5b81019080803573ffffffffffffffffffffffffffffffffffffffff1690602001909291905050506118d7565b6040518082815260200191505060405180910390f35b60025481565b6009818154811015156106b657fe5b906000526020600020016000915054906101000a900473ffffffffffffffffffffffffffffffffffffffff1681565b6000600a60008373ffffffffffffffffffffffffffffffffffffffff1673ffffffffffffffffffffffffffffffffffffffff168152602001908152602001600020549050919050565b600033600115156000809054906101000a900473ffffffffffffffffffffffffffffffffffffffff1673ffffffffffffffffffffffffffffffffffffffff166324d7806c836040518263ffffffff167c0100000000000000000000000000000000000000000000000000000000028152600401808273ffffffffffffffffffffffffffffffffffffffff1673ffffffffffffffffffffffffffffffffffffffff16815260200191505060206040518083038186803b1580156107ef57600080fd5b505afa158015610803573d6000803e3d6000fd5b505050506040513d602081101561081957600080fd5b8101908080519060200190929190505050151514151561083857600080fd5b60006003541115156108b2576040517f08c379a00000000000000000000000000000000000000000000000000000000081526004018080602001828103825260168152602001807f4e6f20617661696c61626c65206469766964656e64730000000000000000000081525060200191505060405180910390fd5b6064600254600554028115156108c457fe5b04600354111515610989576040517f08c379a00000000000000000000000000000000000000000000000000000000081526004018080602001828103825260458152602001807f4d757374206d61696e7461696e2061206365727461696e20696e766573746d6581526020017f6e74206c6576656c20696e206f7264657220746f20747269676765722064697681526020017f6964656e6400000000000000000000000000000000000000000000000000000081525060600191505060405180910390fd5b60006006600060028110151561099b57fe5b0154141515610a12576040517f08c379a00000000000000000000000000000000000000000000000000000000081526004018080602001828103825260208152602001807f5374696c6c206f6e2070726576696f7573206469766964656e64206379636c6581525060200191505060405180910390fd5b6000610a2b6004546003546118ef90919063ffffffff16565b9050610a416064826119bc90919063ffffffff16565b9050610a5881600354611a0690919063ffffffff16565b6003819055508060066000600281101515610a6f57fe5b01819055508060066001600281101515610a8557fe5b0181905550809250505090565b336000600c60008373ffffffffffffffffffffffffffffffffffffffff1673ffffffffffffffffffffffffffffffffffffffff16815260200190815260200160002080549050111515610b4d576040517f08c379a00000000000000000000000000000000000000000000000000000000081526004018080602001828103825260148152602001807f4e6f7420612076616c696420696e766573746f7200000000000000000000000081525060200191505060405180910390fd5b6000600b60008373ffffffffffffffffffffffffffffffffffffffff1673ffffffffffffffffffffffffffffffffffffffff16815260200190815260200160002054111515610c04576040517f08c379a00000000000000000000000000000000000000000000000000000000081526004018080602001828103825260208152602001807f4164647265737320686173206e6f207769746864726177616c20616d6f756e7481525060200191505060405180910390fd5b600b60008273ffffffffffffffffffffffffffffffffffffffff1673ffffffffffffffffffffffffffffffffffffffff1681526020019081526020016000205460066001600281101515610c5457fe5b0154111515610ccb576040517f08c379a000000000000000000000000000000000000000000000000000000000815260040180806020018281038252601a8152602001807f4572726f72202d206e6f20617661696c61626c652066756e647300000000000081525060200191505060405180910390fd5b6000600b60003373ffffffffffffffffffffffffffffffffffffffff1673ffffffffffffffffffffffffffffffffffffffff168152602001908152602001600020549050610d338160066001600281101515610d2357fe5b0154611a0690919063ffffffff16565b60066001600281101515610d4357fe5b01819055506000600b60003373ffffffffffffffffffffffffffffffffffffffff1673ffffffffffffffffffffffffffffffffffffffff168152602001908152602001600020819055506008600081548092919060010191905055506009805490506008541415610dfa576000600881905550600060066000600281101515610dc857fe5b0181905550610df360066001600281101515610de057fe5b0154600354611a5090919063ffffffff16565b6003819055505b3373ffffffffffffffffffffffffffffffffffffffff166108fc829081150290604051600060405180830381858888f19350505050158015610e40573d6000803e3d6000fd5b507fa502fd41811afb69adfdfadf22b00a476d683cb0e8fcb04ecef9e331e2a26a6d3382604051808373ffffffffffffffffffffffffffffffffffffffff1673ffffffffffffffffffffffffffffffffffffffff1681526020018281526020019250505060405180910390a15050565b600a6020528060005260406000206000915090505481565b60045481565b600c60205281600052604060002081815481101515610ee957fe5b9060005260206000209060030201600091509150508060000160009054906101000a900473ffffffffffffffffffffffffffffffffffffffff16908060010154908060020154905083565b6000600b60008373ffffffffffffffffffffffffffffffffffffffff1673ffffffffffffffffffffffffffffffffffffffff168152602001908152602001600020549050919050565b600160009054906101000a900473ffffffffffffffffffffffffffffffffffffffff1681565b60003411151561101b576040517f08c379a000000000000000000000000000000000000000000000000000000000815260040180806020018281038252601a8152602001807f41747461636820616e20696e766573746d656e742076616c756500000000000081525060200191505060405180910390fd5b60003490506000600c60003373ffffffffffffffffffffffffffffffffffffffff1673ffffffffffffffffffffffffffffffffffffffff1681526020019081526020016000208054905014156110d25760093390806001815401808255809150509060018203906000526020600020016000909192909190916101000a81548173ffffffffffffffffffffffffffffffffffffffff021916908373ffffffffffffffffffffffffffffffffffffffff160217905550505b600c60003373ffffffffffffffffffffffffffffffffffffffff1673ffffffffffffffffffffffffffffffffffffffff1681526020019081526020016000206060604051908101604052803373ffffffffffffffffffffffffffffffffffffffff168152602001428152602001838152509080600181540180825580915050906001820390600052602060002090600302016000909192909190915060008201518160000160006101000a81548173ffffffffffffffffffffffffffffffffffffffff021916908373ffffffffffffffffffffffffffffffffffffffff160217905550602082015181600101556040820151816002015550505061121f6001600a60003373ffffffffffffffffffffffffffffffffffffffff1673ffffffffffffffffffffffffffffffffffffffff16815260200190815260200160002054611a5090919063ffffffff16565b600a60003373ffffffffffffffffffffffffffffffffffffffff1673ffffffffffffffffffffffffffffffffffffffff1681526020019081526020016000208190555061127781600254611a5090919063ffffffff16565b60028190555061129281600354611a5090919063ffffffff16565b6003819055507f012335398b2ec0286f8c0396759e9608b4e163f51d06d11116dd801b2b47c60f3382604051808373ffffffffffffffffffffffffffffffffffffffff1673ffffffffffffffffffffffffffffffffffffffff1681526020018281526020019250505060405180910390a150565b60055481565b600033600115156000809054906101000a900473ffffffffffffffffffffffffffffffffffffffff1673ffffffffffffffffffffffffffffffffffffffff166324d7806c836040518263ffffffff167c0100000000000000000000000000000000000000000000000000000000028152600401808273ffffffffffffffffffffffffffffffffffffffff1673ffffffffffffffffffffffffffffffffffffffff16815260200191505060206040518083038186803b1580156113cd57600080fd5b505afa1580156113e1573d6000803e3d6000fd5b505050506040513d60208110156113f757600080fd5b8101908080519060200190929190505050151514151561141657600080fd5b826003819055508260035414915050919050565b60035481565b600033600115156000809054906101000a900473ffffffffffffffffffffffffffffffffffffffff1673ffffffffffffffffffffffffffffffffffffffff166324d7806c836040518263ffffffff167c0100000000000000000000000000000000000000000000000000000000028152600401808273ffffffffffffffffffffffffffffffffffffffff1673ffffffffffffffffffffffffffffffffffffffff16815260200191505060206040518083038186803b1580156114f157600080fd5b505afa158015611505573d6000803e3d6000fd5b505050506040513d602081101561151b57600080fd5b8101908080519060200190929190505050151514151561153a57600080fd5b600080905060008090505b600c60008673ffffffffffffffffffffffffffffffffffffffff1673ffffffffffffffffffffffffffffffffffffffff168152602001908152602001600020805490508110156116c5578473ffffffffffffffffffffffffffffffffffffffff16600c60008773ffffffffffffffffffffffffffffffffffffffff1673ffffffffffffffffffffffffffffffffffffffff168152602001908152602001600020828154811015156115f257fe5b906000526020600020906003020160000160009054906101000a900473ffffffffffffffffffffffffffffffffffffffff1673ffffffffffffffffffffffffffffffffffffffff1614151561164657600080fd5b6116b6600c60008773ffffffffffffffffffffffffffffffffffffffff1673ffffffffffffffffffffffffffffffffffffffff1681526020019081526020016000208281548110151561169557fe5b90600052602060002090600302016002015483611a5090919063ffffffff16565b91508080600101915050611545565b5060006116ec600660006002811015156116db57fe5b0154836118ef90919063ffffffff16565b9050611703600254826119bc90919063ffffffff16565b905061175781600b60008873ffffffffffffffffffffffffffffffffffffffff1673ffffffffffffffffffffffffffffffffffffffff16815260200190815260200160002054611a5090919063ffffffff16565b600b60008773ffffffffffffffffffffffffffffffffffffffff1673ffffffffffffffffffffffffffffffffffffffff168152602001908152602001600020819055507f42f69d5213292b7ba6e1e5a1f251f6edca6f86e95f14e89871ebb5e9fa5099b885600b60008873ffffffffffffffffffffffffffffffffffffffff1673ffffffffffffffffffffffffffffffffffffffff16815260200190815260200160002054604051808373ffffffffffffffffffffffffffffffffffffffff1673ffffffffffffffffffffffffffffffffffffffff1681526020018281526020019250505060405180910390a1809350505050919050565b60068160028110151561185e57fe5b016000915090505481565b6000600c60008473ffffffffffffffffffffffffffffffffffffffff1673ffffffffffffffffffffffffffffffffffffffff168152602001908152602001600020828154811015156118b757fe5b906000526020600020906003020160020154905092915050565b60085481565b600b6020528060005260406000206000915090505481565b60008083141561190257600090506119b6565b6000828402905082848281151561191557fe5b041415156119b1576040517f08c379a00000000000000000000000000000000000000000000000000000000081526004018080602001828103825260218152602001807f536166654d6174683a206d756c7469706c69636174696f6e206f766572666c6f81526020017f770000000000000000000000000000000000000000000000000000000000000081525060400191505060405180910390fd5b809150505b92915050565b60006119fe83836040805190810160405280601a81526020017f536166654d6174683a206469766973696f6e206279207a65726f000000000000815250611ada565b905092915050565b6000611a4883836040805190810160405280601e81526020017f536166654d6174683a207375627472616374696f6e206f766572666c6f770000815250611ba4565b905092915050565b6000808284019050838110151515611ad0576040517f08c379a000000000000000000000000000000000000000000000000000000000815260040180806020018281038252601b8152602001807f536166654d6174683a206164646974696f6e206f766572666c6f77000000000081525060200191505060405180910390fd5b8091505092915050565b600080831182901515611b88576040517f08c379a00000000000000000000000000000000000000000000000000000000081526004018080602001828103825283818151815260200191508051906020019080838360005b83811015611b4d578082015181840152602081019050611b32565b50505050905090810190601f168015611b7a5780820380516001836020036101000a031916815260200191505b509250505060405180910390fd5b5060008385811515611b9657fe5b049050809150509392505050565b60008383111582901515611c53576040517f08c379a00000000000000000000000000000000000000000000000000000000081526004018080602001828103825283818151815260200191508051906020019080838360005b83811015611c18578082015181840152602081019050611bfd565b50505050905090810190601f168015611c455780820380516001836020036101000a031916815260200191505b509250505060405180910390fd5b506000838503905080915050939250505056fea165627a7a72305820eb3eff319fd0afbcf885bcef4d81c5014ad6610c8f44f355fe0a03f1e89217f100296080604052610e10600255600360045534801561001b57600080fd5b506040516020806117e08339810180604052602081101561003b57600080fd5b810190808051906020019092919050505080600160006101000a81548173ffffffffffffffffffffffffffffffffffffffff021916908373ffffffffffffffffffffffffffffffffffffffff160217905550806000806101000a81548173ffffffffffffffffffffffffffffffffffffffff021916908373ffffffffffffffffffffffffffffffffffffffff16021790555050611703806100dd6000396000f3fe608060405260043610610067576000357c0100000000000000000000000000000000000000000000000000000000900480630fc646911461006c5780634fef23641461009757806381da62c7146100c65780638f501a9b1461011d578063cdcf631614610148575b600080fd5b34801561007857600080fd5b50610081610173565b6040518082815260200191505060405180910390f35b3480156100a357600080fd5b506100ac610179565b604051808215151515815260200191505060405180910390f35b3480156100d257600080fd5b506100db610398565b604051808273ffffffffffffffffffffffffffffffffffffffff1673ffffffffffffffffffffffffffffffffffffffff16815260200191505060405180910390f35b34801561012957600080fd5b506101326103be565b6040518082815260200191505060405180910390f35b34801561015457600080fd5b5061015d6103c4565b6040518082815260200191505060405180910390f35b60025481565b600080600080600090505b60045481101561038d576000809054906101000a900473ffffffffffffffffffffffffffffffffffffffff1673ffffffffffffffffffffffffffffffffffffffff166364e980726003546040518263ffffffff167c01000000000000000000000000000000000000000000000000000000000281526004018082815260200191505060206040518083038186803b15801561021e57600080fd5b505afa158015610232573d6000803e3d6000fd5b505050506040513d602081101561024857600080fd5b81019080805190602001909291905050509250610264836103ca565b8201915060016003600082825401925050819055506000809054906101000a900473ffffffffffffffffffffffffffffffffffffffff1673ffffffffffffffffffffffffffffffffffffffff16637ab9be186040518163ffffffff167c010000000000000000000000000000000000000000000000000000000002815260040160206040518083038186803b1580156102fc57600080fd5b505afa158015610310573d6000803e3d6000fd5b505050506040513d602081101561032657600080fd5b810190808051906020019092919050505060035414156103805760006003819055507f2a337d71f9f377b9df07c7d0b3b45e113342364e6da3faa740095ae43dbfb67260405160405180910390a160019350505050610395565b8080600101915050610184565b506000925050505b90565b600160009054906101000a900473ffffffffffffffffffffffffffffffffffffffff1681565b60035481565b60045481565b60008060006103d7610751565b90507f43e0d79edab99ad436795e03537a27e8192b11095f7d9e54e8748f538f75910c846040518082815260200191505060405180910390a160008060008060008060008060009054906101000a900473ffffffffffffffffffffffffffffffffffffffff1673ffffffffffffffffffffffffffffffffffffffff16633dcd20f48c6040518263ffffffff167c01000000000000000000000000000000000000000000000000000000000281526004018082815260200191505060e06040518083038186803b1580156104a957600080fd5b505afa1580156104bd573d6000803e3d6000fd5b505050506040513d60e08110156104d357600080fd5b81019080805190602001909291908051906020019092919080519060200190929190805190602001909291908051906020019092919080519060200190929190805190602001909291905050509650965096509650965096509650600115158215151415156105aa576040517f08c379a00000000000000000000000000000000000000000000000000000000081526004018080602001828103825260188152602001807f426174746572792073686f756c6420626520616374697665000000000000000081525060200191505060405180910390fd5b60006105b6858a61075b565b905060011515811515141561072e5760008060009054906101000a900473ffffffffffffffffffffffffffffffffffffffff1673ffffffffffffffffffffffffffffffffffffffff166369777fce6040518163ffffffff167c010000000000000000000000000000000000000000000000000000000002815260040160206040518083038186803b15801561064a57600080fd5b505afa15801561065e573d6000803e3d6000fd5b505050506040513d602081101561067457600080fd5b810190808051906020019092919050505073ffffffffffffffffffffffffffffffffffffffff1663af5cfae86040518163ffffffff167c010000000000000000000000000000000000000000000000000000000002815260040160206040518083038186803b1580156106e657600080fd5b505afa1580156106fa573d6000803e3d6000fd5b505050506040513d602081101561071057600080fd5b810190808051906020019092919050505011151561072d57600080fd5b5b61073d8c898989888e87610779565b9950899a5050505050505050505050919050565b6000611388905090565b60008183111561076e5760019050610773565b600090505b92915050565b600080610793610e10600254610ae390919063ffffffff16565b905060008789039050600115158415151415610a6457600081111515610847576040517f08c379a00000000000000000000000000000000000000000000000000000000081526004018080602001828103825260398152602001807f426174746572792073686f756c6420686176652072656d61696e696e6720636181526020017f70616369747920696e206f7264657220746f206368617267650000000000000081525060400191505060405180910390fd5b600061085c8388610b2d90919063ffffffff16565b90506108718282610bfa90919063ffffffff16565b935060008060009054906101000a900473ffffffffffffffffffffffffffffffffffffffff1673ffffffffffffffffffffffffffffffffffffffff166369777fce6040518163ffffffff167c010000000000000000000000000000000000000000000000000000000002815260040160206040518083038186803b1580156108f857600080fd5b505afa15801561090c573d6000803e3d6000fd5b505050506040513d602081101561092257600080fd5b810190808051906020019092919050505073ffffffffffffffffffffffffffffffffffffffff1663af5cfae86040518163ffffffff167c010000000000000000000000000000000000000000000000000000000002815260040160206040518083038186803b15801561099457600080fd5b505afa1580156109a8573d6000803e3d6000fd5b505050506040513d60208110156109be57600080fd5b8101908080519060200190929190505050905060006109e68887610b2d90919063ffffffff16565b905081811115610a0957819050610a068883610ae390919063ffffffff16565b95505b610a148d878a610c13565b507f296a30a2a2c9836b929a5bd912a99404f742866c6f1d2ccb40dbe91ae51d0c8b8a878a60405180848152602001838152602001828152602001935050505060405180910390a1505050610ad6565b610a80610a7a8388610b2d90919063ffffffff16565b89610bfa565b9250610a8d8a8487611096565b507fa47998a00343b402e4fe19ddd70ec87f868ffa405b95a5e6a1d554a83f809e7c87848760405180848152602001838152602001828152602001935050505060405180910390a15b5050979650505050505050565b6000610b2583836040805190810160405280601a81526020017f536166654d6174683a206469766973696f6e206279207a65726f000000000000815250611477565b905092915050565b600080831415610b405760009050610bf4565b60008284029050828482811515610b5357fe5b04141515610bef576040517f08c379a00000000000000000000000000000000000000000000000000000000081526004018080602001828103825260218152602001807f536166654d6174683a206d756c7469706c69636174696f6e206f766572666c6f81526020017f770000000000000000000000000000000000000000000000000000000000000081525060400191505060405180910390fd5b809150505b92915050565b6000818310610c095781610c0b565b825b905092915050565b6000806000809054906101000a900473ffffffffffffffffffffffffffffffffffffffff1673ffffffffffffffffffffffffffffffffffffffff166369777fce6040518163ffffffff167c010000000000000000000000000000000000000000000000000000000002815260040160206040518083038186803b158015610c9957600080fd5b505afa158015610cad573d6000803e3d6000fd5b505050506040513d6020811015610cc357600080fd5b810190808051906020019092919050505073ffffffffffffffffffffffffffffffffffffffff1663af5cfae86040518163ffffffff167c010000000000000000000000000000000000000000000000000000000002815260040160206040518083038186803b158015610d3557600080fd5b505afa158015610d49573d6000803e3d6000fd5b505050506040513d6020811015610d5f57600080fd5b810190808051906020019092919050505090506000610d99610d8a8587610b2d90919063ffffffff16565b8361154190919063ffffffff16565b905060008110151515610e3a576040517f08c379a00000000000000000000000000000000000000000000000000000000081526004018080602001828103825260268152602001807f4e6f7420656e6f756768206d6f6e657920746f206d616b65207468697320707581526020017f726368617365000000000000000000000000000000000000000000000000000081525060400191505060405180910390fd5b6000809054906101000a900473ffffffffffffffffffffffffffffffffffffffff1673ffffffffffffffffffffffffffffffffffffffff166369777fce6040518163ffffffff167c010000000000000000000000000000000000000000000000000000000002815260040160206040518083038186803b158015610ebd57600080fd5b505afa158015610ed1573d6000803e3d6000fd5b505050506040513d6020811015610ee757600080fd5b810190808051906020019092919050505073ffffffffffffffffffffffffffffffffffffffff1663a342766b826040518263ffffffff167c010000000000000000000000000000000000000000000000000000000002815260040180828152602001915050602060405180830381600087803b158015610f6657600080fd5b505af1158015610f7a573d6000803e3d6000fd5b505050506040513d6020811015610f9057600080fd5b810190808051906020019092919050505015611088576000809054906101000a900473ffffffffffffffffffffffffffffffffffffffff1673ffffffffffffffffffffffffffffffffffffffff1663460fafbc87876000036040518363ffffffff167c01000000000000000000000000000000000000000000000000000000000281526004018083815260200182815260200192505050602060405180830381600087803b15801561104157600080fd5b505af1158015611055573d6000803e3d6000fd5b505050506040513d602081101561106b57600080fd5b81019080805190602001909291905050505060019250505061108f565b6000925050505b9392505050565b6000806000809054906101000a900473ffffffffffffffffffffffffffffffffffffffff1673ffffffffffffffffffffffffffffffffffffffff166369777fce6040518163ffffffff167c010000000000000000000000000000000000000000000000000000000002815260040160206040518083038186803b15801561111c57600080fd5b505afa158015611130573d6000803e3d6000fd5b505050506040513d602081101561114657600080fd5b810190808051906020019092919050505073ffffffffffffffffffffffffffffffffffffffff1663af5cfae86040518163ffffffff167c010000000000000000000000000000000000000000000000000000000002815260040160206040518083038186803b1580156111b857600080fd5b505afa1580156111cc573d6000803e3d6000fd5b505050506040513d60208110156111e257600080fd5b81019080805190602001909291905050509050600061121c61120d8587610b2d90919063ffffffff16565b8361158b90919063ffffffff16565b90506000809054906101000a900473ffffffffffffffffffffffffffffffffffffffff1673ffffffffffffffffffffffffffffffffffffffff166369777fce6040518163ffffffff167c010000000000000000000000000000000000000000000000000000000002815260040160206040518083038186803b1580156112a157600080fd5b505afa1580156112b5573d6000803e3d6000fd5b505050506040513d60208110156112cb57600080fd5b810190808051906020019092919050505073ffffffffffffffffffffffffffffffffffffffff1663a342766b826040518263ffffffff167c010000000000000000000000000000000000000000000000000000000002815260040180828152602001915050602060405180830381600087803b15801561134a57600080fd5b505af115801561135e573d6000803e3d6000fd5b505050506040513d602081101561137457600080fd5b810190808051906020019092919050505015611469576000809054906101000a900473ffffffffffffffffffffffffffffffffffffffff1673ffffffffffffffffffffffffffffffffffffffff1663460fafbc87876040518363ffffffff167c01000000000000000000000000000000000000000000000000000000000281526004018083815260200182815260200192505050602060405180830381600087803b15801561142257600080fd5b505af1158015611436573d6000803e3d6000fd5b505050506040513d602081101561144c57600080fd5b810190808051906020019092919050505050600192505050611470565b6000925050505b9392505050565b600080831182901515611525576040517f08c379a00000000000000000000000000000000000000000000000000000000081526004018080602001828103825283818151815260200191508051906020019080838360005b838110156114ea5780820151818401526020810190506114cf565b50505050905090810190601f1680156115175780820380516001836020036101000a031916815260200191505b509250505060405180910390fd5b506000838581151561153357fe5b049050809150509392505050565b600061158383836040805190810160405280601e81526020017f536166654d6174683a207375627472616374696f6e206f766572666c6f770000815250611615565b905092915050565b600080828401905083811015151561160b576040517f08c379a000000000000000000000000000000000000000000000000000000000815260040180806020018281038252601b8152602001807f536166654d6174683a206164646974696f6e206f766572666c6f77000000000081525060200191505060405180910390fd5b8091505092915050565b600083831115829015156116c4576040517f08c379a00000000000000000000000000000000000000000000000000000000081526004018080602001828103825283818151815260200191508051906020019080838360005b8381101561168957808201518184015260208101905061166e565b50505050905090810190601f1680156116b65780820380516001836020036101000a031916815260200191505b509250505060405180910390fd5b506000838503905080915050939250505056fea165627a7a72305820d00200e9485d46e8e791466042713abd0d277d2c2ed48b3ecfe69a2bb546d4340029",
  "source": "pragma solidity >=0.5.0;\r\n\r\nimport \"@openzeppelin/contracts/math/SafeMath.sol\";\r\n\r\nimport \"./BatteryInvestment.sol\";\r\nimport \"./BatteryEnergy.sol\";\r\nimport \"./Ownable.sol\"; // to manage ownership addresses\r\n\r\ncontract PtoP is Ownable {\r\n    using SafeMath for uint256;\r\n\r\n    struct Battery {\r\n        uint256 capacity; // max charge capacity\r\n        uint256 currentFilled; // current charge level\r\n        uint256 dateAdded; // keep track of timestamp battery was added\r\n        uint256 cost; // cost of the battery in eth\r\n        bytes32 serialNumber; // for internal record keeping\r\n        uint256 priceThreshold; // energy price threshold; whether to purchase energy based on real time rate\r\n        uint256 chargeRate; // per hour, ie how much capacity can be charged/discharged\r\n        bool isActive; // active or decommissioned\r\n        uint256 mapIndex; // corresponds to the battery's index in batteryMapping array\r\n    }\r\n    Battery[] public batteries; // array of active batteries\r\n    Battery[] public decommissionedBatteries; // array of decommissioned batts\r\n    BatteryInvestment public batteryInvestmentContract; // deployed by this contract\r\n    BatteryEnergy public batteryEnergyContract; // deployed by this contract\r\n    // State variables\r\n    bool private stopped = false; // circuit breaker design\r\n    address public PtoPAddress;\r\n    address public batteryInvestmentAddress;\r\n    address public batteryEnergyAddress;\r\n    uint256 public numBatteries = 0; // number of active batteries\r\n    uint256 public numAdmins = 0; // number of active admins\r\n    uint256[] public batteryMapping; // array to log the battery's index in batteries array\r\n    mapping(address => bool) public admins; // addresses of admins\r\n    address[] public adminsList;\r\n\r\n    // Events\r\n    event LogNewInvestment(address investorAddress, uint256 investmentAmount);\r\n    event LogWithdrawalMade(address investorAddress, uint256 withdrawalAmount);\r\n    event LogChangeAdmin(address adminAddress, bool status); // when admin status is changed\r\n    event LogBatteryActive(bytes32 serialNumber, bool newStatus); // when battery is decommissioned or added\r\n    event LogBatteryThresholdChanged(uint256 newThreshold);\r\n    // event LogBatteryDetails (uint remainingInvestment, uint cost); // when battery is decommissioned or added\r\n\r\n    // Modifiers\r\n    // check address is a valid admin or calling from deployed contract\r\n    modifier isAdminModifier(address msgAddress) {\r\n        require(\r\n            admins[msgAddress] == true ||\r\n                msg.sender == PtoPAddress ||\r\n                msg.sender == batteryInvestmentAddress ||\r\n                msg.sender == batteryEnergyAddress,\r\n            \"not a valid Admin\"\r\n        );\r\n        _;\r\n    }\r\n    // circuit breaker design\r\n    modifier stopInEmergency() {\r\n        if (!stopped) _;\r\n    }\r\n    modifier onlyInEmergency() {\r\n        if (stopped) _;\r\n    }\r\n    // check battery is valid:\r\n    // - amount of charge in the battery cannot exceed the charge\r\n    // - remaining investment has enough funds to pay for the cost of the battery\r\n    // - price threshold is positive\r\n    modifier isBatteryValidModifier(\r\n        uint256 _capacity,\r\n        uint256 _currentFilled,\r\n        uint256 _cost,\r\n        uint256 _priceThreshold\r\n    ) {\r\n        // emit LogBatteryDetails(batteryInvestmentContract.remainingInvestment(), _cost);\r\n        uint256 remainingInvestment = batteryInvestmentContract\r\n            .remainingInvestment();\r\n        require(\r\n            _capacity.sub(_currentFilled) >= 0,\r\n            \"Capacity must exceed amount filled\"\r\n        );\r\n        require(\r\n            remainingInvestment.sub(_cost) >= 0,\r\n            \"Not enough investment to purchase\"\r\n        );\r\n        require(_priceThreshold >= 0, \"Must have a valid price threshold\");\r\n        _;\r\n    }\r\n\r\n    /// @notice constructor\r\n    constructor() public {\r\n        setAdmin(msg.sender, true); // set contract deployer as admin\r\n        uint256 dividendPercentage = 1; // set amount of investment which will be used for dividend\r\n        // define contract addresses and contracts that are deployed\r\n        PtoPAddress = address(this);\r\n        batteryInvestmentContract = new BatteryInvestment(\r\n            PtoPAddress,\r\n            dividendPercentage\r\n        );\r\n        batteryInvestmentAddress = address(batteryInvestmentContract);\r\n        batteryEnergyContract = new BatteryEnergy(PtoPAddress);\r\n        batteryEnergyAddress = address(batteryEnergyContract);\r\n    }\r\n\r\n    // External functions\r\n    /// @notice allow other contracts to check admin users\r\n    /// @return whether address is an admin user\r\n    function isAdmin(\r\n        address adminAddress\r\n    ) external view isAdminModifier(adminAddress) returns (bool) {\r\n        return true;\r\n    }\r\n\r\n    function getBattery(\r\n        uint256 index\r\n    )\r\n        public\r\n        view\r\n        returns (\r\n            uint256 capacity,\r\n            uint256 currentFilled,\r\n            uint256 dateAdded,\r\n            uint256 cost,\r\n            bytes32 serialNumber,\r\n            uint256 priceThreshold,\r\n            uint256 chargeRate,\r\n            bool isActive,\r\n            uint256 mapIndex\r\n        )\r\n    {\r\n        Battery memory b = batteries[index];\r\n        return (\r\n            b.capacity,\r\n            b.currentFilled,\r\n            b.dateAdded,\r\n            b.cost,\r\n            b.serialNumber,\r\n            b.priceThreshold,\r\n            b.chargeRate,\r\n            b.isActive,\r\n            b.mapIndex\r\n        );\r\n    }\r\n\r\n    function getBatteryMapping() public view returns (uint256[] memory) {\r\n        return batteryMapping;\r\n    }\r\n\r\n    function getAdmin() public view returns (address[] memory) {\r\n        return adminsList;\r\n    }\r\n\r\n    function getUser()\r\n        public\r\n        returns (\r\n            // isAdminModifier(msg.sender)\r\n            address sender\r\n        )\r\n    {\r\n        return msg.sender;\r\n    }\r\n\r\n    /// @notice add battery to array of storage assets\r\n    /// @return battery ID of battery added\r\n    function addBattery(\r\n        uint256 _capacity,\r\n        uint256 _currentFilled,\r\n        uint256 _cost,\r\n        bytes32 _serialNumber,\r\n        uint256 _priceThreshold,\r\n        uint256 _chargeRate\r\n    )\r\n        external\r\n        isBatteryValidModifier(\r\n            _capacity,\r\n            _currentFilled,\r\n            _cost,\r\n            _priceThreshold\r\n        )\r\n        stopInEmergency\r\n        returns (uint256 response)\r\n    {\r\n        uint256 batteryID = batteries.length; // index in the array, corresponds to current length of array\r\n        // add each characteristic to create Battery struct, push to array\r\n\r\n        Battery memory newBatt;\r\n        newBatt.capacity = _capacity;\r\n        newBatt.currentFilled = _currentFilled;\r\n        newBatt.cost = _cost;\r\n        newBatt.serialNumber = _serialNumber;\r\n        newBatt.priceThreshold = _priceThreshold;\r\n        newBatt.chargeRate = _chargeRate;\r\n        newBatt.isActive = true;\r\n        newBatt.mapIndex = batteryID;\r\n\r\n        batteries.push(newBatt);\r\n\r\n        uint256 remainingInvestment = batteryInvestmentContract\r\n            .remainingInvestment();\r\n\r\n        numBatteries = numBatteries.add(1); // increase number of active batteries\r\n        batteryMapping.push(batteryID); // record battery ID in mapping\r\n\r\n        // update remaining investment with cost of battery\r\n        uint256 _newRemainingInvestment = remainingInvestment.sub(_cost);\r\n\r\n        batteryInvestmentContract.updateRemainingInvestment(\r\n            _newRemainingInvestment\r\n        );\r\n\r\n        response = batteries[batteryID].mapIndex;\r\n        emit LogBatteryActive(_serialNumber, true);\r\n    }\r\n\r\n    /// @notice add/subtract charge to battery\r\n    /// @param _batteryID battery identifier\r\n    /// @param _chargeAmount amount of charge to add/subtract\r\n    /// @return new amount of charge currently filled\r\n    function chargeBattery(\r\n        uint256 _batteryID,\r\n        uint256 _chargeAmount\r\n    ) external isAdminModifier(msg.sender) stopInEmergency returns (uint256) {\r\n        // require the anount of charge to not exceed capacity\r\n        require(\r\n            batteries[_batteryID].currentFilled + _chargeAmount <=\r\n                batteries[_batteryID].capacity\r\n        );\r\n        // if valid, add charge to specific battery\r\n        batteries[_batteryID].currentFilled =\r\n            batteries[_batteryID].currentFilled +\r\n            _chargeAmount;\r\n        return batteries[_batteryID].currentFilled;\r\n    }\r\n\r\n    /// @notice alter battery threshold that determines charge/discharge decision\r\n    /// @param _batteryID battery identifier\r\n    /// @param _newThreshold new threshold value to change to\r\n    function changeBatteryThreshold(\r\n        uint256 _batteryID,\r\n        uint256 _newThreshold\r\n    ) external stopInEmergency isAdminModifier(msg.sender) {\r\n        // require the price threshold to be positive\r\n        require(_newThreshold >= 0);\r\n        // set new threshold of specific battery\r\n        batteries[_batteryID].priceThreshold = _newThreshold;\r\n        emit LogBatteryThresholdChanged(_newThreshold);\r\n    }\r\n\r\n    /// @notice decommission battery, ie set active to false and move to other array\r\n    /// @param _batteryID battery identifier\r\n    /// @return number of batteries after batt has been decommissioned\r\n    function decommissionBattery(\r\n        uint256 _batteryID\r\n    ) external stopInEmergency isAdminModifier(msg.sender) returns (uint256) {\r\n        // require the battery state to be active before it can be decommissioned\r\n        require(batteries[_batteryID].isActive);\r\n        batteries[_batteryID].isActive = false; // set battery to inactive\r\n        bytes32 serialNumber = batteries[_batteryID].serialNumber;\r\n        // add decommissioned battery to separate array\r\n        decommissionedBatteries.push(batteries[_batteryID]);\r\n        // replace decommissioned battery in the array with battery at the end of current array\r\n        batteries[batteries.length - 1].mapIndex = batteries[_batteryID]\r\n            .mapIndex;\r\n        // also change index in batteryMapping\r\n        batteryMapping[_batteryID] = batteries.length - 1;\r\n        // remove last elements (which have been moved)\r\n        batteryMapping.length--;\r\n        // decrement number of batteries\r\n        numBatteries--;\r\n        emit LogBatteryActive(serialNumber, false); // log battery change activity\r\n        return numBatteries;\r\n    }\r\n\r\n    // External functions that are view\r\n    /// @notice retrieve battery info\r\n    /// @param _batteryID battery identifier\r\n    /// @return battery characteristics as list of values\r\n    function getRelevantBatteryInfo(\r\n        uint256 _batteryID\r\n    )\r\n        external\r\n        view\r\n        returns (uint256, uint256, bytes32, uint256, uint256, bool, uint256)\r\n    {\r\n        return (\r\n            batteries[_batteryID].capacity,\r\n            batteries[_batteryID].currentFilled,\r\n            batteries[_batteryID].serialNumber,\r\n            batteries[_batteryID].priceThreshold,\r\n            batteries[_batteryID].chargeRate,\r\n            batteries[_batteryID].isActive,\r\n            batteries[_batteryID].mapIndex\r\n        );\r\n    }\r\n\r\n    /// @notice retrieve battery capacity remaining\r\n    /// @param _batteryID battery identifier\r\n    /// @return battery capacity remaining\r\n    function getBatteryCapacityRemaining(\r\n        uint256 _batteryID\r\n    ) external view returns (uint256 remaining) {\r\n        remaining =\r\n            batteries[_batteryID].capacity -\r\n            batteries[_batteryID].currentFilled;\r\n        if (remaining <= 0) {\r\n            return 0;\r\n        }\r\n    }\r\n\r\n    /// @notice retrieve battery charge rate\r\n    /// @param _batteryID battery identifier\r\n    /// @return battery charge rate\r\n    function getBatteryChargeRate(\r\n        uint256 _batteryID\r\n    ) external view returns (uint256) {\r\n        return batteries[_batteryID].chargeRate;\r\n    }\r\n\r\n    /// @notice mapIndex of the battery\r\n    /// @param _batteryID battery identifier\r\n    /// @return index of battery within batteryMapping\r\n    function getBatteryMapIndex(\r\n        uint256 _batteryID\r\n    ) external view returns (uint256) {\r\n        return batteries[_batteryID].mapIndex;\r\n    }\r\n\r\n    // Public functions\r\n\r\n    /// @notice toggle stopped variable for circuit breaker design\r\n    function toggleContractActive() public isAdminModifier(msg.sender) {\r\n        stopped = !stopped;\r\n    }\r\n\r\n    /// @notice add or remove admins\r\n    function setAdmin(\r\n        address _newAdminAddress,\r\n        bool _adminStatus\r\n    )\r\n        public\r\n        returns (\r\n            // onlyOwner\r\n            uint256\r\n        )\r\n    {\r\n        // set admin at address\r\n        admins[_newAdminAddress] = _adminStatus;\r\n        adminsList.push(_newAdminAddress);\r\n        // if true, increment # of admins\r\n        if (_adminStatus == true) {\r\n            numAdmins++;\r\n        } else {\r\n            numAdmins--;\r\n        }\r\n        return numAdmins;\r\n        emit LogChangeAdmin(_newAdminAddress, _adminStatus);\r\n    }\r\n}\r\n",
  "sourcePath": "/mnt/c/Users/Owner/Documents/energytrading - storage/my-app/contracts/PtoP.sol",
  "compiler": {
    "name": "solc",
    "version": "0.5.1+commit.c8a2cb62.Emscripten.clang"
  },
  "schemaVersion": "3.4.16",
  "updatedAt": "2025-08-30T12:54:01.102Z",
  "networkType": "ethereum",
  "devdoc": {
    "methods": {
      "addBattery(uint256,uint256,uint256,bytes32,uint256,uint256)": {
        "return": "battery ID of battery added"
      },
      "changeBatteryThreshold(uint256,uint256)": {
        "params": {
          "_newThreshold": "new threshold value to change to"
        }
      },
      "chargeBattery(uint256,uint256)": {
        "return": "new amount of charge currently filled"
      },
      "decommissionBattery(uint256)": {
        "return": "number of batteries after batt has been decommissioned"
      },
      "getBatteryCapacityRemaining(uint256)": {
        "return": "battery capacity remaining"
      },
      "getBatteryChargeRate(uint256)": {
        "return": "battery charge rate"
      },
      "getBatteryMapIndex(uint256)": {
        "return": "index of battery within batteryMapping"
      },
      "getRelevantBatteryInfo(uint256)": {
        "return": "battery characteristics as list of values"
      },
      "isAdmin(address)": {
        "return": "whether address is an admin user"
      }
    }
  },
  "userdoc": {
    "methods": {
      "constructor": "constructor",
      "setAdmin(address,bool)": {
        "notice": "add or remove admins"
      },
      "toggleContractActive()": {
        "notice": "toggle stopped variable for circuit breaker design"
      }
    }
  }
}